:020000040800F2
:1000000098E1002045010008E99B0108CD5901084D
:10001000E196010809280008395B03080000000088
:100020000000000000000000000000006DF2020867
:10003000099A000800000000B5CC0108E12003087F
:100040005F0100085F0100085F0100085F01000810
:100050005F0100085F0100085F0100085F01000800
:1000600065DD00085F0100085F0100085F0100080E
:100070005F0100085F0100085F0100085F010008E0
:100080005F0100085F0100085F0100085F010008D0
:100090000D5103085F0100085F0100089DDD0008A5
:1000A0005F0100085F0100085F0100085F010008B0
:1000B000F9210308B12303085F0100085F0100086C
:1000C0005F0100085F0100085F0100085F01000890
:1000D0005F0100088D4903085D4A03084D4B030882
:1000E0005F0100085F010008914E03085F010008EE
:1000F0005F0100085F0100085F0100085F01000860
:100100005F01000811E602085F0100085F010008B6
:100110005F0100085F010008C1240308A12503084E
:100120005F0100085F0100085F0100085F0100082F
:10013000DFF80CD000F0F0FA0048004731860308E1
:1001400098E100200648804706480047FEE7FEE7A2
:10015000FEE7FEE7FEE7FEE7FEE7FEE7FEE7FEE777
:1001600069210308310100082DE9F05F05460020F0
:1001700092469B4688460646814640241BE0284618
:1001800041464746224600F0C6F853465A46C01A32
:10019000914110D311461846224600F0ADF82D1AB1
:1001A00067EB01084F4622460120002100F0A4F829
:1001B00017EB00094E41201EA4F10104DFDC484684
:1001C00031462A464346BDE8F09F40EA01039B07BB
:1001D00003D009E008C9121F08C0042AFAD203E0BC
:1001E00011F8013B00F8013B521EF9D27047D2B220
:1001F00001E000F8012B491EFBD270470022F6E710
:1002000010B513460A4604461946FFF7F0FF20468C
:1002100010BD10B5044604E00B7800F8013B03B1B3
:10022000491C521EF8D2204610BDCAB2401E10F81A
:10023000011F8A4202D00029F9D100207047421CD8
:1002400010F8011B0029FBD1801A704710B500225D
:1002500000E0521C835C8C5CA34201D1002BF8D1DE
:10026000D8B2E1B2401A10BD30B5044600200346B2
:1002700000E05B1C934203D2E05CCD5C401BF8D0F5
:1002800030BD034611F8012B00F8012B002AF9D1EB
:100290001846704730B505460020034600E05B1C59
:1002A000934205D2EC5CC85C201A01D1002CF6D137
:1002B00030BD70B5064636F0A7FB046805460A2235
:1002C0000021304600F037F82C6070BD30B50B4689
:1002D000014600202022012409E021FA02F59D4276
:1002E00005D303FA02F5491B04FA02F52844151E4A
:1002F000A2F10102F1DC30BD202A04DB203A00FA31
:1003000002F1002070479140C2F1200320FA03F36C
:10031000194390407047202A04DB203A21FA02F06A
:100320000021704721FA02F3D040C2F1200291402F
:100330000843194670472DE9F04791460F4680461D
:100340000446002614F8015B2DB100F009FA00689C
:10035000405DC007F6D12B2D02D02D2D18D0641E84
:100360004A463946204600F0FFF927B13968A142D4
:1003700001D1C7F8008071054FF002040BD540424F
:10038000002803DD36F040FB0460A007BDE8F087DD
:1003900046F48066E4E70028F8DA36F035FB0460BE
:1003A0006FF00040F2E72DE9FE4F804681EA03003E
:1003B000C00F0C46009021F0004123F00045B8EB3F
:1003C0000200A94105D24046214690461C460B46F4
:1003D000024623F00040104347D0270DC7F30A0020
:1003E000C3F30A510290401A019040286BDAC3F31C
:1003F000130040F4801B0098924620B10023D2EBFA
:10040000030A63EB0B0B01985946C0F140025046BA
:10041000FFF772FF06460D4650465946019A00F016
:100420008DF910EB08006141002487EA115284EA3B
:10043000E7731A4340D0009A62B3019A012A4FEA47
:10044000075215DC001B61EB02014FF0004202EA8B
:100450000752CDE90042001C41F5801132462B467F
:1004600000F0E0F903B0BDE8F08F40462146F9E71F
:10047000001B61EB0201001C41F5801300185B4179
:100480002018A2F5001747EB030140EAD570B61912
:100490006D4111E06D084FEA360645EAC0754FEA36
:1004A0000752001B61EB0201001C41F58011490855
:1004B0004FEA30000019514132462B4603B0BDE8E7
:1004C000F04F00F0A0B90098012240000023D0EBCB
:1004D000020263EBE073009821464FEAE074B8EB48
:1004E000000061EB0401E9E783F000435BE781F082
:1004F000004158E72DE9FE4F81EA030404F000446F
:1005000021F0004100944FF0000B23F0004350EA2B
:1005100001045ED052EA03045BD0C3F30A54C1F372
:100520000A552C44A4F2F3340194A0FB0254C1F305
:10053000130141F48011C3F3130343F4801301FB4F
:10054000024400FB034E840A970A44EA815447EAB6
:100550008357A4FB076802958D0A05FB07854FEAC0
:10056000932C04FB0C542705029D4FEA065847EADA
:100570001637B5EB08056EEB070C870E920E47EAAF
:10058000811742EA8312A7FB0201B6EB0B0164EB71
:1005900000042B0D43EA0C335E1844EB1C50DA4682
:1005A0005146E7FB0201C5F313044FEA0B3343EA5C
:1005B00014534FEA0432019C43EA0603A4F10C04ED
:1005C0000294009CCDE900B400F02CF903B0BDE822
:1005D000F08F00200146F9E72DE9F04D81EA030490
:1005E00004F0004B21F0004514464FF0000A23F0C0
:1005F000004150EA050220D054EA01021DD0C5F3A3
:100600000A570246C5F31303C1F31300C1F30A5698
:1006100040F4801543F48013A7EB0608101BD64660
:1006200008F2FD3873EB050002D308F1010801E080
:1006300092185B41B8F1000F03DA00200146BDE8D3
:10064000F08D00204FF48011064684460EE0171B03
:1006500073EB050705D3121B63EB050306434CEA56
:10066000010C49084FEA300092185B4150EA01073B
:10067000EDD152EA030012D082EA040083EA0501B8
:10068000084305D0101BAB4106D20122002306E02F
:1006900000224FF0004302E06FF0010253101AEB0A
:1006A00006004CEB085110EB0A0041EB0B01BDE8D2
:1006B000F04D00F0A8B8C1F30A52C1F3130140F2A3
:1006C000FF3341F480119A4202DA0020014670475C
:1006D00040F233439A42A2F2334202DC5242FFF725
:1006E0001ABEFFF709BE000030B5041E71F1000408
:1006F00004DB4FF00044404264EB0101141E73F12F
:10070000000405DB1C464FF00043524263EB040338
:10071000994208BF904230BD064C074D06E0E068A4
:1007200040F0010394E8070098471034AC42F6D338
:10073000FFF702FD3402050854020508202A06DBF3
:10074000CB17203A41FA02F043EAE07306E041FA9F
:1007500002F3D040C2F1200291400843194670478D
:1007600000487047FCE104082DE9F05F82460078FC
:10077000002715468B460AF10104B946302801D0FE
:100780009DB113E014F8010B0127782803D05828F5
:1007900001D045B10AE00DB1102D07D10027102579
:1007A00014F8010B02E0082500E00A250026B046F7
:1007B0000EE005FB080005FB06F1012701EB1046E2
:1007C0001FFA80F8B6F5803F00D3B94614F8010B44
:1007D000294600F075F80028EBDABBF1000F05D0D0
:1007E0000FB1641E00E05446CBF80040B9F1000F91
:1007F00006D036F009F902210160C81EBDE8F09F5D
:1008000048EA0640FAE710B5141E73F1000408DA4E
:10081000401C41F1000192185B411A4301D120F0C4
:10082000010010BD2DE9F04D92469B4611B1B1FA81
:1008300081F202E0B0FA80F220329046FFF75CFDD0
:1008400004460F4640EA0A0041EA0B0153465A4665
:10085000084313D0114653EA010019D0C8F14002F1
:100860005046FFF758FD05460E465046594642464B
:10087000FFF742FD084305D0012004E02046394639
:10088000BDE8F08D0020054346EAE0762C4337436F
:100890000A986305E40AA0EB08000022FD0A44EA76
:1008A00047540A3002D500200146E9E70105101936
:1008B0006941DDE9084500196941BDE8F04DA2E74D
:1008C0003A2800D2303820F02002412A01D3A2F188
:1008D0003700884201D34FF0FF30704770B58C1855
:1008E00010F8015B15F0070301D110F8013B2A1144
:1008F00006D110F8012B03E010F8016B01F8016B31
:100900005B1EF9D12B0705D40023521E0DD401F82C
:10091000013BFAE710F8013BCB1A921C03E013F8F5
:10092000015B01F8015B521EF9D5A142D8D300202A
:1009300070BD000000B591B001214FF404702BF0A0
:10094000F9F9012108462BF0D5F94FF440402BF07E
:10095000C5F9264808F0B2FC2548019025480290C8
:100960000020039003200490002005908020069032
:1009700040000790800008902020099000020A9013
:1009800000200B9001A9194808F03EFD01211748ED
:1009900008F088FC00200C9001208DF834008DF8C0
:1009A00035004FF460200E9000200F9003208DF84A
:1009B00040000CA90E484C3800F034F807230122FF
:1009C0000E210B484C3800F055F8072302220F2166
:1009D00007484C3800F04EF803231A460A21044811
:1009E0004C3800F047F811B000BD0000080002408C
:1009F0004C2401408000002021B1826842F00102B5
:100A0000826003E0826822F001028260704721B1B7
:100A1000826842F48072826003E0826822F480720D
:100A20008260704730B502460020002350680F4CAA
:100A300020400D790C6844EA0524204350609068FA
:100A40000B4C2040D1E902542C434D7944EA450433
:100A500020439060D06A20F470000C7C641EE4B2E5
:100A6000234340EA0350D06230BD0000FFFEF0FF98
:100A7000FDF7F1FFF0B504460D4600200021092DD9
:100A800011DDE068A5F10A0606EB4607072606FA1F
:100A900007F18843A5F10A0606EB460603FA06F1BC
:100AA0000843E0600CE0206905EB4507072606FADD
:100AB00007F1884305EB450603FA06F10843206178
:100AC000072A0FDA606B561E06EB86071F2606FA0A
:100AD00007F18843561E06EB860605FA06F1084321
:100AE000606322E00D2A0FDA206BD61F06EB860723
:100AF0001F2606FA07F18843D61F06EB860605FA7D
:100B000006F10843206310E0E06AA2F10D0606EB4F
:100B100086071F2606FA07F18843A2F10D0606EBA9
:100B2000860605FA06F10843E062F0BD21B182684D
:100B300042F4A002826003E0826822F4A002826094
:100B400070470146302904DB392902DC01F00F002F
:100B50007047412901DB462903DD612905DB662950
:100B600003DC01F00F000930F2E70020F0E700009D
:100B70002DE9F04105460E46287800F080004D49E9
:100B80000870307800F080004B490870287800F039
:100B900007004A490870307800F00700484908709B
:100BA00011214848FFF72AFB11214748FFF726FB90
:100BB0004448D5F801100160D5F80510416042485D
:100BC000D6F801100160D6F8051041603B48007866
:100BD0003B49097888420FDD07E039480078401C1E
:100BE00037490870384800F035FF344800783449F8
:100BF00009788842F1DC14E03048007830490978FF
:100C000088420EDA07E02D480078401C2B49087016
:100C10002C4800F01FFF29480078294909788842AC
:100C2000F1DB072425E02748005D2749095D88425C
:100C300000DD20E02348005D2349095D884216DA83
:100C4000002409E01F48075D1F48005D1D49085545
:100C50001D480755601C04B2082CF3DB16480778C2
:100C600014480078144908701248077003E0601EA9
:100C700004B2002CD7DA00BF0E4800780E4909787C
:100C8000884202D100F024F801E030F089FE0948E2
:100C900000780E49087007F0F5FD0C4800782870C0
:100CA00008480168C5F801104068C5F80500BDE8AE
:100CB000F0810000F3010020F4010020F501002084
:100CC000F60100206729002078290020F201002089
:100CD00070B500210024002030E01A4D2D5C05F095
:100CE0000F05184E365C361106EB860605EB4605F9
:100CF000EAB2154D2D5C05F00F05134E365C36112A
:100D000006EB860605EB4605EBB2D5182544E9B29D
:100D1000632904DDA1F16405E9B2012400E00024A7
:100D20000A2591FBF5F605FB16150A2691FBF6F64A
:100D300005EB0615034E3554451C28B21028CCDBB4
:100D400070BD0000672900207829002010B511F03F
:100D5000FFFD144890F8C206134909680844124977
:100D6000086000200F4981F8590F15E00D4890F8F0
:100D7000591F00F2C46000EBC10100F66D300A6833
:100D800002604968416000F05BFA064890F8590F2C
:100D9000401C044981F8590F024890F8590F062861
:100DA000E4DB10BDAC290020EC01002010B511F0EF
:100DB000DFFD144890F8F706134909680844124902
:100DC000086000200F4981F8590F15E00D4890F890
:100DD000591F00F2F96000EBC10100F638300A68D3
:100DE00002604968416000F02BFA064890F8590FFC
:100DF000401C044981F8590F024890F8590F062801
:100E0000E4DB10BDAC290020EC01002010B519482E
:100E1000B0F8801FB0F82907814229DA11F072FE7C
:100E2000144890F82D0714490968084412490860CD
:100E30000020104981F8590F15E00E4890F8591F0D
:100E400000F2327000EBC10100F6FF200A68026078
:100E50004968416000F0F4F9064890F8590F401CC9
:100E6000044981F8590F034890F8590F0628E4DB2C
:100E700010BD0000AC290020EC01002010B511F0DD
:100E8000A1FE144890F865071349096808441249FF
:100E9000086000200F4981F8590F15E00D4890F8BF
:100EA000591F00F2677000EBC10100F6CA200A6802
:100EB00002604968416000F0C3F9064890F8590F94
:100EC000401C044981F8590F024890F8590F062830
:100ED000E4DB10BDAC290020EC01002010B519485E
:100EE00090F8321F90F89707814229DA11F07AFEC4
:100EF000144890F89A071449096808441249086090
:100F00000020104981F8590F15E00E4890F8591F3C
:100F100000F29C7000EBC10100F695200A680260A7
:100F20004968416000F08CF9064890F8590F401C60
:100F3000044981F8590F034890F8590F0628E4DB5B
:100F400010BD0000AC290020EC01002010B52B489A
:100F5000D0F8A1042A4908600020284981F8590FD7
:100F600015E0264890F8591F00F28F6000EBC10190
:100F700000F6A2300A6802604968416000F060F93A
:100F80001E4890F8590F401C1C4981F8590F1B4806
:100F900090F8590F0628E4DB1848B0F8821FB0F823
:100FA000CC07814229DA11F08FFE144890F8D0075F
:100FB0001349096808441249086000200F4981F864
:100FC000590F15E00D4890F8591F00F2D27000EB50
:100FD000C10100F65F200A6802604968416000F0C4
:100FE0002FF9064890F8590F401C044981F8590F11
:100FF000024890F8590F0628E4DB10BDAC29002008
:10100000EC0100201CB52A48B0F8FD4E294814F028
:10101000E7F8284BDA78997818880CF0B7FF26495A
:101020004881B4F5006F3DDA4FF4004101EB041044
:10103000214A0A32102136F051FC1F490C80002051
:101040004880009001904FF4804101EBC4006A4653
:10105000082136F043FC1648B0F8FD0E401C81B262
:101060001348A0F8FD1EC4F3090413480088B0F526
:10107000806F04DA10480089B0F5804F09D00E481F
:101080000088B0F5806F11DB0B480089B0F5C04FC8
:101090000CD109481A3000EBC40000990160019995
:1010A000416003E05A20024981F8330F1CBD000063
:1010B000AC290020B15900201C66002010B512F0A8
:1010C000A7FD144890F80808134909680844124914
:1010D000086000200F4981F8590F15E00D4890F87D
:1010E000591F00F61A0000EBC10100F617200A682C
:1010F00002604968416000F0A3F8064890F8590F73
:10110000401C044981F8590F024890F8590F0628ED
:10111000E4DB10BDAC290020EC01002010B54FF03D
:10112000FF3012F03FFE144890F81908134909687F
:1011300008441249086000200F4981F8590F15E052
:101140000D4890F8591F00F64A0000EBC10100F667
:10115000E7100A6802604968416000F071F80648CB
:1011600090F8590F401C044981F8590F024890F833
:10117000590F0628E4DB10BDAC290020EC0100204B
:1011800010B512F03FFE144890F880081349096822
:1011900008441249086000200F4981F8590F15E0F2
:1011A0000D4890F8591F00F6870000EBC10100F6CA
:1011B000AA100A6802604968416000F041F80648D8
:1011C00090F8590F401C044981F8590F024890F8D3
:1011D000590F0628E4DB10BDAC290020EC010020EB
:1011E00010B512F095FE144890F8BA081349096832
:1011F00008441249086000200F4981F8590F15E092
:101200000D4890F8591F00F6BC0000EBC10100F634
:1012100075100A6802604968416000F011F80648DC
:1012200090F8590F401C044981F8590F024890F872
:10123000590F0628E4DB10BDAC290020EC0100208A
:1012400070B5664890F8440F00B170BD644890F8DE
:10125000310200B9F9E76348407800B9F5E75F4823
:1012600090F84C0F00B1F0E700245D4890F831028F
:1012700000F0010018B15B484078204484B258481F
:1012800090F8310200F0020018B15648407820442E
:1012900084B2534890F8310200F0040018B151486C
:1012A0004078204484B24E4890F8310200F00800A3
:1012B00018B14C484078204484B22546474890F8FD
:1012C000590F06285CD2DFE800F003061B30455AB0
:1012D0000024002555E04148B0F82D0500B9B4E7D9
:1012E0003E48B0F82D053D49B1F87C1F401A6843CF
:1012F00085B23A48B0F87C0F401E604384B240E0AB
:10130000364890F8560900B99FE7344890F85609D6
:10131000324991F8671F401A401E684385B22F4832
:1013200090F8670F604384B22BE02C4890F887094F
:1013300000B98AE7294890F88709284991F82F1FB2
:10134000401A401E684385B2244890F82F0F60432E
:1013500084B216E0214890F8880900B975E71F4863
:1013600090F888091D4991F8511F401A401E6843A2
:1013700085B21A4890F8510F604384B201E064E7E7
:1013800000BF00BF1848006820441749086014488F
:1013900090F8310200F0010008B100F025F9104882
:1013A00090F8310200F0020008B100F01DF90C487D
:1013B00090F8310200F0040008B100F015F9084877
:1013C00090F8310200F0080008B100F00DF906486D
:1013D000006828440449086000BF36E7AC290020B3
:1013E000AC390020DD3B0020EC0100203EB5184860
:1013F00090F83A0F58BB164890F8370F022826D0BD
:10140000134890F8440F10BB114890F84A0F08B1E8
:10141000032400E000240F48016800914168019115
:10142000007A8DF808000C4820440188ADF80110BE
:1014300080788DF8030009496846FFF799FB064854
:101440002044BDF8011001809DF8031081703EBD5D
:10145000AC29002060CB0308B938002069CB030811
:101460002DE9F047074607F00F094FEA171AB9F1BF
:10147000000F3DDD0125002610E009EA050048B116
:1014800006EBC601264A8818A2F1A201FFF770FBFD
:10149000B04605E06806050E701CC6B2042EECDBF3
:1014A00000BFBAF1000F23DD012500241DE00AEA88
:1014B0000500B0B1042101EB440101EBC101184A60
:1014C0008818A2F1A201FFF753FB052101EB4401AB
:1014D00001EBC101124A8818A2F1A201FFF748FBF3
:1014E00005E06806050E601CC4B2042CDFDB00BFFB
:1014F0000B49A23901F18700FFF73AFB0849483947
:1015000001F13600FFF734FB064890F8640F0549F7
:1015100081F8650F002081F8640FBDE8F0870000B6
:10152000D9480020AC29002010B513F039FE14482A
:1015300090F8EF0813490968084412490860002030
:101540000F4981F8590F15E00D4890F8591F00F622
:10155000F10000EBC10100F514600A6802604968FF
:101560004160FFF76DFE064890F8590F401C044992
:1015700081F8590F024890F8590F0628E4DB10BD96
:10158000AC290020EC01002010B513F019FE14481E
:1015900090F824091349096808441249086000209A
:1015A0000F4981F8590F15E00D4890F8591F00F6C2
:1015B000261000EBC10100F60B100A6802604968B2
:1015C0004160FFF73DFE064890F8590F401C044962
:1015D00081F8590F024890F8590F0628E4DB10BD36
:1015E000AC290020EC01002010B5404890F84A0FCB
:1015F00060B13E4890F8590F012807D03C48407828
:101600003C49096808443B49086010BD39480468F2
:101610002BF07EFD37480460344890F8260F38B12F
:1016200035F03CF9324840782044324908605AE0AD
:101630002F48807890B12E482B30407A00F0080077
:1016400060B92A4890F8690F40B9284890F8370FD8
:1016500020B9294926482B30FFF78AFA2448C07858
:1016600068B123482B30407A00F0830020492B31A9
:10167000487201F68941A1F54860FFF779FA1C48E4
:10168000007920B11D49A1F61D40FFF771FA1848F5
:101690004079A0B119497E31A1F6924030F0C0F9ED
:1016A00013482B30C07E00F0800040B11049463115
:1016B000134802680A6042684A60007A08720C485F
:1016C000807928B10D491B31A1F62640FFF750FA69
:1016D0000748C07928B109491231A1F61440FFF733
:1016E00047FA35F0DBF800BF8FE70000AC29002097
:1016F000DD3B0020EC01002069CB030837480020C7
:1017000060CB0308002070472DE9F04106460C46E7
:101710002EB92F4890F8200400F00F0040B9002E99
:1017200053D02B4890F8200400F0F00000284CD053
:10173000277800202070264890F8200400F00F053C
:101740001DB9234890F820040509012D06D0022D6B
:1017500012D0032D1FD0042D35D128E0607800F081
:101760000F00052803DB1B492046FFF701FA6078CC
:1017700000F0F000607026E0657800206070742D45
:1017800004DD15492046FFF7F3F903E0242D01DDC0
:101790005020607017E0607800F0F0050020607065
:1017A000502D03DB0C492046FFF7E2F90BE060788F
:1017B00000F0F00500206070002D03DD0649204692
:1017C000FFF7D6F900BF00BF2770BDE8F081000029
:1017D000AC29002072CB03087BCB030810B504466C
:1017E0003048007830B920224F212F48FEF7FFFC07
:1017F00005F03BFF2D4890F8720F00F01000002814
:1018000038D12F2C03D13020FFF7E8FF30242E2CC5
:101810001AD1264890F8300FA0B90120234981F849
:10182000300F2048007828BB30201F4981F84D0038
:101830002E2081F84E00002081F84F000220194927
:10184000087010BD0020FCE7184890F8300F88B1F0
:10185000302C0FDB392C0DDC144890F8300F0328A6
:1018600001DD0020EDE7114890F8300F401C0F49D2
:1018700081F8300F0B48007828B14E220A49491CE4
:10188000481EFEF7A2FC084880F84E40002006499A
:1018900081F84F0003480078401C02490870084650
:1018A0000078CEE7A5020020BA590020AC2900201C
:1018B00010B501460A12CBB202F00F00141104EB6E
:1018C000840400EB440000EBC00404EB00104FF66E
:1018D000FF7404EA800203F00F001C1104EB84047F
:1018E00000EB4400104480B210BD00002DE9FF471A
:1018F00082460C4691461D46DDE90D780C9E134844
:1019000090F8E403012802D0022812D108E02B4607
:101910004A460FA150468DE8D00135F04FF811E04E
:101920004B46224612A150468DE8E00135F046F8BC
:1019300008E04B462A4606A150468DE8D00135F016
:101940003DF800BF00BFBDE8FF870000AC290020C4
:10195000253032782D253032782D323025303278CE
:1019600020253032783A253032783A2530327800E6
:101970003230253032782D253032782D25303278AE
:1019800020253032783A253032783A2530327800C6
:101990002DE9F047034600252846294606221CE08B
:1019A0009C5C992C16DC9C5C04F00F049D5C2D1152
:1019B00005EB850504EB45044FF0640C4FF000097E
:1019C0008046A8FB0C6A01FB0CA700FB0977A01955
:1019D00047EBE471A2F1010422B2002AE0DABDE88B
:1019E000F08730B502460C460023062113E0505C18
:1019F00099280EDC505C00F00F00555C2D1105EBB2
:101A0000850500EB450003EBC30505EB031500EB73
:101A10008503481E01B20029E9DA236098B230BD7F
:101A200030B500240F30002101E0401E491C102970
:101A300002DA0578002DF8D009E005782D072A0E86
:101A400005782B091D1905701446401E491C1029E4
:101A5000F3DB30BD30B50024002109E005782D0707
:101A60002A0E05782B09151905701C46401C491CC7
:101A70001029F3DB30BD0146072005E04A1C125C4B
:101A800002B103E0421E10B20028F7DA00BF421C88
:101A900010B200280BDD421E4B1C9A5C0F2A04DAA0
:101AA0000122C2EB400210B201E0420010B20A78FB
:101AB00002F080020AB1421C10B2704708B501461C
:101AC000002000900348009000980844009000987F
:101AD000008808BD006C004008B500220092044A4E
:101AE0000092009A02440092009A116008BD000022
:101AF000006C004010B504461548B0F8E90F00F43A
:101B0000007020BB4CB113491348B0F86B0008803B
:101B10000846007840F0800008700D4890F8E90F02
:101B200000F00100C0F10800C0EBC00000EB400273
:101B3000094954390948FEF748FB36F023F90448AF
:101B4000B0F8E90F40F400710148A0F8E91F10BD9A
:101B5000AC490020CC0100202C590020AA240020F0
:101B600010B50F4890F8FD0300F007041CB10C48B5
:101B700090F8330F08B1002010BD611EC8B20CF000
:101B8000E1F9611EC8B205212DF059FE002005497A
:101B9000087005490870054908800120ECE700003D
:101BA000AC29002069010020680100206C010020A0
:101BB00070B5B34890F8FD0300F007051DB1B048BB
:101BC00090F8330F08B1002070BDE7E0691EC8B27D
:101BD00002F086F830B1691EC8B22AF08FFC0446C4
:101BE000401C08B90020EFE7A6480088B8BB0020D9
:101BF000A5490870A5490870A5490870012C10D0A6
:101C0000022C12D0062C02D0462C16D111E0691EEF
:101C1000C8B211212DF013FE02209E490870002049
:101C2000D2E702209B49087009E00020994908701A
:101C300005E001209749087001E00020C4E700BFDB
:101C40008F4890F8FD0300F007009249097801F0F1
:101C50000F0140EA01118A4880F8FD1330E0FFE7E8
:101C60008C48007802282BD1042C1FD1864800789C
:101C700080F00300844908700846007848B9864817
:101C80008078532805D18448008840F20121884299
:101C90000BD0691EC8B20CF055F95520784981F86F
:101CA000330F0020774908808EE778E07548B0F957
:101CB0000000012804DD7448007860407249087013
:101CC0007248007838B16F48B0F900006F49097860
:101CD000401A012804DC70496A4AB2F900208C5489
:101CE000302C01DB392C01DD2E2C0AD1684800781C
:101CF00018B96448007866490870624800786349FA
:101D0000087060480088401C00B25E490880614845
:101D10000078012819D1084600880A2815D15C48A6
:101D2000007818B908460078594908705548007875
:101D3000564908702E215348B0F900200088401CF5
:101D400000B2504B1880544881544E48B0F90000FE
:101D50001E2801DA0A2C03D100204A49088033E703
:101D60000D2C1BD14B48007818B94B48007802283D
:101D700007D048480078012804D147480078462811
:101D800000D10CE0691EC8B20CF0DCF855203C49CB
:101D900081F8330F00203B49088015E716E700BFA4
:101DA000002005F0ABFA691EC8B20CF0CBF8002099
:101DB0003A490870334908800026002534480078E5
:101DC00032490978884259DA3148047832E04EB90C
:101DD0003148005B43F23001884201D0012000E02D
:101DE0000020064626B300212D48A0F8851E2A486B
:101DF000055D2E2D06D12348008818B90120214900
:101E0000088008E01F48008828B11E480088401C50
:101E100000B21C4908801B48B0F90000042807DC08
:101E20001F48A0F8835E0146B1F8830E15F0DEFC72
:101E3000601C04B2154800788442C8DD00201149B6
:101E40000880012000F0CCF90D48B0F87A0F432843
:101E500004D00B48B0F87A0F45280FD10021104864
:101E6000A0F8851E40F2D471A0F8831E0120044919
:101E700081F8340F23F0FAF90120A5E60020A3E64B
:101E8000AC2900206C0100206A01002069010020BB
:101E9000680100206E0100207E230020A80200209F
:101EA000AC39002070B5844890F8FF0300F00705B6
:101EB000814890F8330F90B97F48B0F87A0F4228E4
:101EC0000DD07D48B0F87A0F462808D07A48B0F88F
:101ED0007A0F472805D1794800781F2801D00020C3
:101EE00070BD002679E05DB1691EC8B201F0F8FE50
:101EF00030B1691EC8B22AF001FB0446401C08B983
:101F00000020EDE7E4B26E4801680068401C6C4AAE
:101F100010606C48445410460068FE2803DB002023
:101F200011460860DCE70A2C11D006DC022C09D02F
:101F3000032C31D0092C40D12DE00D2C2AD0242C9B
:101F40003BD100E000BF00205D490860C8E75C4865
:101F50000068801E5B49085C0D280AD1584800685B
:101F6000801E5749086000205649554A1268885417
:101F70000EE053480068401E514908600020514956
:101F80004F4A126888544E48006808B90020A7E7F5
:101F9000012621E000BF00BF49480068401E4849B3
:101FA000086000204749464A12688854444800683F
:101FB00008B9002094E701260EE0202C01DB7E2CDE
:101FC00009DD3F480068401E3D49086000203D494A
:101FD0003B4A1268885400BF00BF002E83D0002007
:101FE00005F08CF90020384908703348B0F87A0FB2
:101FF00047281CD131480078C8B92F4991F85B1F98
:1020000001F0040109B1062100E0042108462D4930
:1020100018F058FA05F03AFB05F016FB08220421E7
:10202000284809F03DFD00202549086058E724486C
:102030000078264908700020214908602449234A75
:102040001278891A481E21490A781E49FEF7BDF800
:102050000120194981F8350F02F0EEFD1648B0F85D
:102060007A0F43281CD01448B0F87A0F452817D0AF
:1020700000211848A0F8831E00200F4981F8430F63
:102080000846B0F87A0F442804D113480078134961
:1020900008700FE0084890F8C7031049087009E07D
:1020A00000210C48A0F8851E42F21071A0F8831E92
:1020B00023F0DCF8012013E7AC290020A302002064
:1020C000700100209C230020A8020020A50200200F
:1020D0000A5A0020AC390020B30200209C020020E4
:1020E00030B502460B460020591E0EE0C40004EB3A
:1020F0004004555C04EB2510C40004EB4004555C1F
:1021000005F00F0560194C1E21B20029EEDA30BD32
:1021100010B5044611210948FEF770F8074854F835
:10212000011F016061684160FFF77AFC03480168A4
:10213000216040686060641E10BD000067290020B7
:10214000D0F80220C0F80120C288A0F80520017A4A
:10215000C17100220272704710B50446112109486E
:10216000FEF74CF8074854F8011F016061684160B0
:10217000FFF770FC03480168216040686060641EDE
:1021800010BD000067290020072105E04A1E431CFE
:102190009B5C421C5354491E0029F7DC002242700C
:1021A0007047000008210C4A1160012803D10A2160
:1021B0000A4A11800EE0022803D12821074A118023
:1021C00008E0032803D15021044A118002E00A21CB
:1021D000024A118070470000141401406E00002074
:1021E00000B50346D8B2FFF7DDFF002000BD0000B8
:1021F0002DE9FC5F8346894616461C46082E00D909
:102200000826002C3ED02048D0F800A04FF000084F
:10221000601E04B229E0A5B205EB080085B26D107E
:1022200005FB09A018490860314668462AF086FE79
:1022300032466946584606F0FDF90746002F03DA94
:102240002CB2601E04B210E037B10FFA85F808F125
:1022500001000FFA80F808E00B480068801B0A496B
:102260000860681C80B2BDE8FC9FA045D3DD06482D
:102270000068801B04490860002F03DD08460068E1
:10228000484408600020EEE7EC0100202DE9F84307
:1022900081460F4690461C46B9F13C0F76D009DCCA
:1022A000B9F1340F11D0B9F1350F0DD0B9F1360FA6
:1022B0006BD10DE0B9F1440F0CD0B9F1450F7FD0CF
:1022C000B9F1460F7DD162E080E00020BDE8F883DF
:1022D0000020FBE73F48B0F8720F00F400600028D0
:1022E00050D1F8B28DF80000022608F00100B0B31A
:1022F000394890F83E0018B930208DF8010035E0DB
:102300002CB1202C03DCE0B28DF802000326312032
:102310008DF8010014223146684629F0EBFD0025B6
:102320000AE005EB45112C4A3E32881804221F2191
:1023300029F0E0FD681CC5B2082D06DA05EB451052
:1023400025493E31085C0028EBD100208DF80000C3
:1023500004220121684629F0CDFD0120B6E7FFE700
:1023600008F0020010B132208DF801002CB1202CB1
:1023700003DCE0B28DF802000326142231466846E1
:1023800029F0B8FD0120A1E700E01AE01EE047B106
:102390003846FDF754FFC6B2202E03DD202601E0AB
:1023A0000EE000260B48B0F8720F00F4006028B968
:1023B00008F0FF023146384629F09CFD012085E7F0
:1023C00004E0494605A032F021FD00BF00BF002017
:1023D0007CE70000AC290020AC490020436F6D6D04
:1023E000616E642025640A0010B588B0044620465A
:1023F0001D2C7DD00CDCA0F10F000D2879D2DFE878
:1024000000F0317878302B787878353947433F00C1
:10241000502841D006DC332830D03D2809D03F2851
:1024200067D10DE0512878D0522875D05328F7D1C4
:10243000D0E012F0FBFF00908248008808B010BD89
:102440008148B0F8720F00F4006020B980220021AA
:10245000084629F04FFDF1E015F05DFC29F030FC55
:10246000ECE0EBE015F056FC0020E7E700200BF075
:1024700087FDE3E001200BF083FDDFE00020DDE7D6
:102480000320FFF78FFED9E00220FFF78BFED5E097
:102490000120FFF787FED1E001A836F08EFA0798F9
:1024A000B0F5FA6F02DA0020079003E00798A0F574
:1024B000FA6007900A21049890FBF1F201FB1200E8
:1024C0000A22049991FBF2F100EB01105F490870B8
:1024D0000A21069890FBF1F201FB12000A220699EC
:1024E00091FBF2F100EB0110584948700A2101E01C
:1024F0009CE09EE0079890FBF1F201FB12000A229B
:10250000079991FBF2F100EB011050498870059892
:10251000C870012092E700E02EE001A836F04DFAE5
:102520000A21039890FBF1F201FB12000A220399A1
:1025300091FBF2F100EB0110454908700A21029865
:1025400090FBF1F201FB12000A22029991FBF2F1D9
:1025500000EB01103E4948700A21019890FBF1F20E
:1025600001FB12000A22019991FBF2F100EB01102C
:1025700037498870002061E701A836F01EFA334819
:10258000807800F00F0031498978091101EB810151
:1025900000EB410000F5FA6007902C48407800F00D
:1025A0000F002A494978091101EB810100EB410034
:1025B00006902648007800F00F0024490978091198
:1025C00001EB810100EB4100049001A836F021FAF3
:1025D000002033E701A836F0F0F91D48007800F03C
:1025E0000F001B490978091101EB810100EB410043
:1025F00003901748407800F00F00154949780911F9
:1026000001EB810100EB410002901148807800F05D
:102610000F000F498978091101EB810100EB41009E
:10262000019001A836F0F5F9002007E702F0F6FC6A
:1026300004E7214607A032F0E9FB00BF00BF0020FD
:10264000FCE60000E6020020AC290020000000208B
:1026500004000020436F6D6D616E645F312025645E
:102660000A0000002DE9F84F8046894615461E46AF
:10267000DDF828A0374800680090CB46A8F1010497
:10268000B8F1030F63DCBAF1000F02D00020AAF802
:102690000000F5B909E02EB12E4801680098081A2B
:1026A000B04202D90020BDE8F88F04EB440000EBF3
:1026B000C410294901EB0010C06804EB440101EB90
:1026C000C411254A02EB011189688842E3D0012038
:1026D000E9E7681C88B9002004EB440101EBC41150
:1026E0001D4A02EB0111886004EB440101EBC411A7
:1026F00002EB0111C8600120D5E7B9F1000F15D137
:1027000004EB440000EBC410134901EB0010C06857
:1027100004EB440101EBC4110F4A02EB011189687B
:10272000884201D00120BEE70020BCE700270AE074
:1027300032465946404631F09DFE08B938B2B2E7FC
:102740000BF1010B7F1CAF42F2DB2846ABE7002008
:10275000A9E70000DC000020500500202DE9F0472B
:1027600005460E4617469946B046032D0EDC00245A
:1027700007E098F80010284632F018F808F1010830
:10278000641CBC42F5DB0120BDE8F0870020FBE7BC
:1027900070B5002500BF0E48806800F400544FF467
:1027A0007A7036F079FB0A48806800F40056B4422B
:1027B00004D16D1C1CB1022D01DD02E00025322D7B
:1027C000E9DB00BF0CB9012070BD0020FCE7000070
:1027D0000010014030B5024600200FE00B780124C4
:1027E0008440234023B13124431D064DEC5403E0C3
:1027F0003024431D034DEC54431C18B20828EDDB74
:1028000030BD0000245A002000BFFEE70146CAB2D6
:102810000B1243EA0220704710B5002003490860FC
:1028200003202DF063FB012010BD00006401002097
:102830002DE9F04106460C4600271FE002E0052086
:1028400036F02AFB104800680028F8D000200E4916
:102850000860402C01DD402500E02546F0192A469D
:10286000C02133F06BF9294601202DF069FB0120CE
:102870002DF094FB601BC4B2781987B2002CDDDC0C
:102880000120BDE8F08100006001002008B50020B3
:10289000009022E19748008800F00F0096490870E8
:1028A0000846007800287CD1944800689449088044
:1028B0000846008800F0300092490880904800885F
:1028C00000F440508E4908808C4909684BF6BF726D
:1028D00001EA020080F4005080F0200040F4004142
:1028E00041F08001854A11608248008800F01000A4
:1028F00090BB1046006848F60F710840114608600A
:1029000013F0F6F97D4909684BF6BF7201EA02003F
:102910007B49098801F4805109B180F480507849DD
:10292000098801F4005109B180F400507549098803
:1029300001F0100109B180F010007249098801F01E
:10294000200109B180F0200081B241F4004141F042
:1029500080016A4A116008BDFFE76848006880B2DC
:102960000090BDF8000000F40060B0B36348006858
:10297000C0F30E0048F68F710840604908602DF0E2
:10298000FDFF5E4909684BF6BF7201EA02005C492F
:10299000098801F4805109B180F4805058490988B0
:1029A00000E056E001F4005109B180F400505549AF
:1029B000098801F0100109B180F01000514909881F
:1029C00001F0200109B180F0200081B241F4004102
:1029D00041F08001494A1160BDE7FFE7BDF8000002
:1029E00000F40040002878D044480068C0F30E008E
:1029F00048F68F7108404149086017F03BFD3F4998
:102A000009684BF6BF7201EA02003D49098801F4EA
:102A1000805109B180F480503949098801F400518E
:102A200009B180F400503749098801F0100109B15B
:102A300080F010003349098801F0200109B180F0CD
:102A4000200081B241F4004141F080012B4A116025
:102A500081E7294800782C4901EB8000D0F8000C70
:102A600080B20090BDF8000000F40040C0B12248E0
:102A7000007801EB8000D0F8000CC0F30E0048F69F
:102A80008F7108401C4909781F4A02EB8101C1F887
:102A9000000C19490978491E1C4A52F82100804748
:102AA000BDF8000000F08000B8B113480078164966
:102AB00001EB8000D0F8000C48F60F7108400E4979
:102AC0000978114A02EB8101C1F8000C0A49097822
:102AD000491E0F4A52F821008047084844300068D8
:102AE00080B20449088000F4004000287FF4D2AE90
:102AF00000BF30E74C04002028050020005C0040A7
:102B00003C0500203E0500200050004074040020D9
:102B1000580400202DE9F04190B00546FE480168B8
:102B20000A9141680B91007A8DF83000FA481B3009
:102B30000168079141680891007A8DF82400F648F1
:102B40005A300168049141680591007A8DF81800A7
:102B5000F248B0F8967FB0F8808F00269DBBF04811
:102B600001680D9141680E91007A8DF83C00EC48A7
:102B70000168019141680291007A8DF80C00E648E5
:102B800036300168019141680291007A8DF80C009D
:102B9000E44901A816F0E4FEE348407800F008009C
:102BA00028B99DF8040080F080008DF80400DB480F
:102BB00090F84E0F002805D09DF8040080F08000AA
:102BC0008DF80400D0E0FFE7022DFBD1D448016866
:102BD0000D9141680E91007A8DF83C00D048016853
:102BE000019141680291007A8DF80C00CA48363094
:102BF0000168019141680291007A8DF80C0000246F
:102C00008EE0C4EB0411C94800EB4100008841F29A
:102C1000883188426DDDC4EB0411C44800EB4100EB
:102C2000008842F21071884214DDC4EB0411BF48E1
:102C300000EB41000088A0F51C501138B749A1F8FD
:102C4000960F29F0DBFFB548B0F8A40FB349A1F8FF
:102C5000800F0BE0C4EB0411B44800EB4100008886
:102C6000A0F598508938AD49A1F8800F29F084FC6F
:102C7000AD48407800F0400020B9AB48407800F003
:102C80008000C0B1A848407800F0400030B1A648AC
:102C90002F3890F8220000F0400060B9A248407838
:102CA00000F0800030B1A0482F3890F8220000F0EA
:102CB000800000B932E0C4EB04119C4800EB4100F5
:102CC00050F8151F0D9141680E91007A8DF83C0067
:102CD00006F0020038B19DF8340080F080008DF8D5
:102CE000340026F002060DA98B480930FDF740FF9D
:102CF00013E0C4EB04118D4800EB4100008840F262
:102D00002F11884208D0C4EB0411884800EB410021
:102D10000088B0F5977F00D100E000BF601CC4B20E
:102D20008348D0F8B002A0423FF76BAF814901A8B9
:102D300016F016FE7849093101A80AF08DFB7A4891
:102D4000407800F0080028B99DF8040080F0800069
:102D50008DF80400714890F84E0F28B19DF80400DA
:102D600080F080008DF804000024C0E1C4EB041161
:102D70006E4800EB4100008841F2883188427DDDD9
:102D800026F00106C4EB0411684800EB41000088FE
:102D900042F21071884216DD46F00106C4EB0411C0
:102DA000624800EB41000088A0F51C5011385B49D7
:102DB000A1F8960F29F022FF5848B0F8A40F574900
:102DC000A1F8800F0BE0C4EB0411584800EB410060
:102DD0000088A0F5985089385049A1F8800F29F053
:102DE000CBFB042D31D14C480A9901600B9941600D
:102DF0009DF8301001724C48407800F0400038B91E
:102E00004948407800F0800010B900F0A5FB3FE190
:102E10004548407800F0400030B143482F3890F8E2
:102E2000220000F0400068B93F48407800F0800080
:102E30000028ECD03C482F3890F8220000F08000A9
:102E40000028E4D000F088FB22E13748407800F009
:102E5000400020B93448407800F08000D0B13248BA
:102E6000407800F0400030B12F482F3890F8220011
:102E700000F0400070B92C48407800E0AEE000F06F
:102E8000800030B128482F3890F8220000F08000F0
:102E900000B92AE1012D5ED1C4EB0411234800EBF7
:102EA000410100F6F230CA6802600A694260097D99
:102EB000017206F0020038B19DF8340080F0800005
:102EC0008DF8340026F00206C4EB0412174800EB1C
:102ED0004200C11C10481B3016F042FDC4EB041226
:102EE000124800EB420000F115010B481B302EF098
:102EF00097FD094800F11B010A6802604A684260B8
:102F0000097A0172C4EB0411084800EB410100F694
:102F1000314051F8032F0FE037480020AC29002042
:102F200060CB030896CB03080E3B0020603C0020DA
:102F3000AC390020A8CB030802604A684260097AD5
:102F40000172A0F6E56090F8E50E80F080018148FE
:102F500080F8E51E9CE0C4EB04117F4800EB4100C3
:102F600050F8151F0D9141680E91007A8DF83C00C4
:102F700006F0020038B19DF8340080F080008DF832
:102F8000340026F0020601A90DA816F0E9FC7349E9
:102F90000DA80AF061FA00210DA82BF083F90DA904
:102FA0000120FEF7B1FB6E480D9901600E9941605A
:102FB0009DF83C1001721B380D9901600E9941601B
:102FC0009DF83C100172C4EB0412634901EB42010D
:102FD00001F115000DA9FDF7CBFD59E0C4EB04117B
:102FE0005D4800EB41000088B0F5FA7F1FDDC4EBBF
:102FF0000411594800EB41000088B0F5FC7F16DC55
:10300000012D14D1C4EB0411534800EB4101544885
:10301000CA6802600A694260097D01721B38504922
:103020000A6802604A684260097A017230E0C4EBC3
:103030000411494800EB41000088B0F5FC7F0BDD2E
:10304000C4EB0411444800EB41000088B0F5FE7F5A
:1030500002DC012D00D148E0C4EB04113E4800EB36
:1030600041000088B0F5977F02D1042D00D03CE0EC
:103070003B483C490A6802604A684260097A01722A
:103080001B3838490A6802604A684260097A01724E
:103090001DB9354890F84E0F40B131483F303149A5
:1030A0000A6802604A684260097A0172042D1BD0E6
:1030B0002E4890F820102C48B0F8CC07814206DA50
:1030C0002A4890F820002849A1F8820F03E0002048
:1030D0002549A1F8820FFDF739FF06F0010008B17C
:1030E000FEF74EF8FDF792FE00BF601CC4B219480F
:1030F000D0F8B002A0423FF739AE1B4890F84E0F0F
:1031000038B118480168019141680291007A8DF840
:103110000C0013481B380A9901600B9941609DF817
:10312000301001721B3007990160089941609DF8C9
:10313000241001723F3004990160059941609DF8A7
:10314000181001720848A0F8967FA0F8808F10B080
:10315000BDE8F081AC390020603C0020A8CB03081A
:103160005248002060CB0308AC290020DF3A002041
:103170002DE9F04186B00446002700251CB9EE4930
:103180000020FEF7C1FAEC481238EB490A684262A7
:103190004A688262097A80F82C10A0F5F85090F8FD
:1031A000EC0800287ED0E54890F83E0F002879D141
:1031B00000BF0020E14981F8620F92E129F074FF1D
:1031C000DF48007C00F00800E8B1022D19D1DA4890
:1031D000873803990160049941609DF814100172C9
:1031E000D64890F8620F00EBC000D3491B31014470
:1031F000D148873802680A6042684A60007A0872DB
:1032000014E0012566E1022D00D163E1CB4890F87E
:10321000620F00EBC000C8491B310144C648873823
:103220000A6802604A684260097A0172C2487538C9
:10323000C4490A6802604A684260097A0172123819
:1032400002F062FE00287CD0BB482D38BD490A68D8
:1032500002604A684260097A0172B949B1F80D20EA
:10326000A0F80120C97BC170B548007C00F00100C6
:1032700060BBB1487538A0F112010A6802604A6863
:103280004260097A01720421A0F69D6080F8E51E73
:1032900000F6E56100F69D6016F062FB0021A6488D
:1032A000753800E03BE12AF0FDFFA34975390120A4
:1032B000FEF72AFAA14890F8620F042855DA9E49D1
:1032C000753901F18700FDF753FC4EE0032C01D066
:1032D000022C4AD198487538A0F112010A680260A0
:1032E0004A684260097A017248304078992813D1BF
:1032F00091482D38807899280ED18F482D38C07884
:10330000992809D18C486C388E490A6802604A684D
:103310004260097A017228E087486C38A0F11B01ED
:103320000A6802604A684260097A017286493F3041
:10333000FDF71EFC0421854880F8E51E00F6E561D6
:1033400000E017E000F6A6600AF086F87A486C38CC
:103350002BF040F878496C39A1F109002EF060FBA0
:103360007549753903A82EF05BFB0CB1042C01D113
:10337000FEF7DAF8022C7CD17148007C00F00200E4
:10338000002874D06C48753802F0BEFD28B96C482E
:10339000007C00F004000028F3D07FB9022D06D194
:1033A0006B49D1F8800103A91AF022FA05E06849B7
:1033B000D1F8800160491AF01BFA01271B2004F0A4
:1033C000DFFB5F48007C00F0100018B35C496148E7
:1033D000FCF757FF5F48FCF732FF064620223046D5
:1033E000761C5C490A545A4AD2F86812594A901914
:1033F000FCF747FF5248007C00F0010028B94E4915
:10340000873954481AF0F4F904E04B496C395148B3
:103410001AF0EEF9202240214E48FCF7E8FE494818
:103420000168009141680191007A8DF808004448D4
:10343000B0F80D00ADF801004148FCF700FF8046F0
:1034400042463F494348FCF7C0FE02208DF8000089
:103450006946404810300CF0B9FC25203D494874BD
:1034600000208874344975393A481AF0C1F930E0BF
:10347000FFE7032C2DD13248007C00F00100F8B1A9
:103480002F48007C00F00200D0B12B48873802F0B2
:103490003BFD20B92A48007C00F0040080B1264999
:1034A000753927481AF0A4F92548007C00F010006F
:1034B00030B12749D1F868021F496C391AF098F9E0
:1034C0001D4875381F490A6802604A684260097AD7
:1034D000017200BF194890F8620F401C174981F82B
:1034E000620F164890F8621F90F8EC088142FFF6D0
:1034F00065AE012D11D1104912310020FEF704F9FB
:103500000D481238416A0391816A049190F82C00A9
:103510008DF81400022500274BE600BF00BF0748C6
:1035200090F8410F20B9044912310020FEF7ECF861
:1035300006B0BDE8F0810000BE480020AC290020A4
:10354000E53B002060CB03088DCB0308AC3900209D
:1035500080B90308245A002010B58AB05D4840782D
:1035600000F00400002853D15B48016801914168D4
:103570000291007A8DF80C00584901A816F0F0F974
:10358000002442E053482F3890F823000121A14045
:103590000840C0B304EBC4004F496C3108440168D3
:1035A000079141680891007A8DF8240001A907A8C5
:1035B00016F0D6F94A4907A809F04EFF002107A8DE
:1035C0002AF070FE07A90120FEF79EF841484078D6
:1035D00000F0080028B99DF81C0080F080008DF8EC
:1035E0001C00404890F84E0F28B19DF81C0080F058
:1035F00080008DF81C0004EBC401374A6C32881837
:1036000007A9FDF7B5FA601CC4B2082CBADB5FE06D
:10361000314841384169079181690891007F8DF8EF
:10362000240007A802F070FC002851D000244DE0CF
:1036300028482F3890F823000121A1400840002895
:1036400042D004EBC401244A6C32881802F05CFCBE
:10365000D0B304EBC401204A6C32881802F054FC49
:1036600090B304EBC4001C496C3108440168049118
:1036700041680591007A8DF81800194904A816F0E0
:103680006FF907A904A809F0E7FE1349363904A821
:1036900016F066F9124904A809F0DEFE002104A81C
:1036A0002AF000FE9DF8100000F0FC008DF81000DC
:1036B00004A90120FEF728F804EBC401064A6C3285
:1036C000881804A9FDF754FA601CC4B2082CAFDBBB
:1036D0000AB010BD0E3B00206D48002096CB0308B9
:1036E000A8CB0308AC2900200246914201DD00204E
:1036F0007047531A03EBD370C0F34700F8E700009C
:103700002DE9FC5F664F6748007858B94FF005080F
:1037100000206449A1F805001820C8710846B0F8D7
:1037200008A004E05F48B0F805A04FF00A084FF089
:10373000000901E008F1010817F808000028F9D194
:1037400008F1010857484078C0000C2190FBF1F0C7
:10375000554908805348C07888800C20C8801820BC
:10376000088148810024002001904E48B0F80500EF
:10377000002861D0002048804A48B0F80550002653
:103780004DE0A146785DA8B9474A5189474A1019CA
:103790002022FCF72CFD44484089044400222046A6
:1037A000641C42490A546D1C3F484088401C3E49F5
:1037B000488034E0785D012801D1AD1C2FE000265F
:1037C0000AE039484089B04205DD7A5D2046641C34
:1037D00036490A54761C6D1C32480089A84202DD25
:1037E000785D0028EDD16D1CF0B2009005E020223C
:1037F0002046641C2D490A54761C2B484089B0424F
:10380000F5DC2146641C294A00985054264840881B
:10381000401C254948800198401CC0B201902148B5
:103820000089A842ADDC204840881F494989491CCD
:1038300048431D49C86003E000201B494880C86018
:1038400025464FF000091EE009EB0806B85D98B95F
:10385000761C4FF0000B06E000222046641C134942
:103860000A540BF1010BB85D584502DDB4F5005F59
:10387000F2D309F1020906E0BA5D2046641C0B4947
:103880000A5409F10109D14502DAB4F5005FDBD32E
:103890000548C068611B08440349C860BDE8FC9F37
:1038A00000F0036400F00364D0880020E08800206A
:1038B00010B5464890F8E10330B1012820D0022825
:1038C0003AD0032871D153E0404890F8300F30B11E
:1038D000012808D002280AD003280DD108E03C486E
:1038E000FEF752FC0AE03A48FEF736FC06E005E037
:1038F0003748FEF70DFC01E0002010BD00BF56E088
:10390000324890F8300F30B1012805D002280BD092
:1039100003280DD104E00DE02D48FEF7F9FB09E086
:103920002B48FEF7F5FB00BF2948FEF709FC01E034
:103930000020E2E700BF3AE0244890F8300F30B1B1
:10394000012808D002280AD003280DD10BE0204816
:10395000FEF702FC00BF1E48FEF716FC06E01C48FE
:10396000FEF7FAFB02E001E00020C6E700BF1EE020
:10397000164890F8300F30B1012808D0022807D03F
:1039800003280DD108E01248FEF7E6FB0AE009E043
:103990000F48FEF7BDFB05E00D48FEF7D1FB01E047
:1039A0000020AAE700BF02E0FFE70020A5E700BF74
:1039B000084890F8C10E00F0F801064880F8C11ED2
:1039C0000020024981F8300F012096E7AC29002041
:1039D0006D480020AC39002010B5124890F8300F27
:1039E00030B1012808D002280AD003280DD108E000
:1039F0000D48FEF7C9FB0AE00B48FEF7ADFB06E0F9
:103A000005E00948FEF784FB01E0002010BD00BF7F
:103A10000221064880F8C11E0020024981F8300FBB
:103A20000120F3E7AC2900206D480020AC390020CC
:103A300070B50446257805F00F0020B1012806D0A6
:103A400002280CD107E02046FEF786FB00BF204687
:103A5000FEF782FB00BF2046FEF77EFB00BF00BFE3
:103A6000257070BD2DE9F04706460C4615461F46E9
:103A7000681E00F00F010120884000F0FF080120BF
:103A8000304908703048007848B9207800EA0800CA
:103A900008B1012000E00020401C2B4908702A4892
:103AA0000078022802DD01202749087026480078A6
:103AB000022808D187F079002449C871207840EAAB
:103AC0000800207007E087F06E002049C871207858
:103AD00020EA080020701D48C079792807D11C48C9
:103AE000D0F850151948401DFCF7CBFB06E01848EC
:103AF000D0F854151548401DFCF7C3FB154890F845
:103B0000EB1F00231A460D202CF074FA104901EB2C
:103B100086010868FF22002107F0C2FF05F080003F
:103B200068B10B4901EB86010868FCF788FB814608
:103B300005F00F000123FF22494608F035FBBDE8E0
:103B4000F0870000A6020020A4020020245A0020D2
:103B500080B90308AC49002010B500F007F802480E
:103B600090F8330F10BD0000AC29002010B513F001
:103B7000FFFD002855D011F0BFFC0446412C3DDD6F
:103B8000482C13DA2848A0F87A4F09E011F0B4FC69
:103B90000446412C04DD482C02DA2348A0F87A4F71
:103BA0002148B0F87A0F4228F0D03AE0482C0AD1E8
:103BB0001D4890F82C0F00B300201B4981F82C0FF2
:103BC000A1F87E0F2DE0184890F82C0FA04228D0C5
:103BD000154880F82C4FA4F148001349A1F87E0F36
:103BE0000846B0F87E1FB0F82D05814219DD00208F
:103BF0000D49A1F87E0F81F82C0F12E00A4890F8C9
:103C0000C103A0420DD1084890F8490F462808D0BA
:103C1000054890F85D0F20B91B20034981F8330F48
:103C200010BD00BFFCE70000AC2900202A4A92F832
:103C3000022402F00F0100294CD097282ED008DC76
:103C400015280FD0812813D0822817D0852837D186
:103C50001EE09A2828D0CF282CD0E1282CD0F82894
:103C60002ED12BE0012901D15D2000E0402030E081
:103C7000022901D17D2000E07E202AE0012901D126
:103C80007B2004E0062901D15D2000E0602020E0D7
:103C9000062901D17B2000E040201AE0062901D14D
:103CA000602000E07C2014E0022901D15D2000E0CA
:103CB0005E200EE024200CE07E200AE05B2008E07D
:103CC0007F2805DDB02803DA00F07F02034B985C03
:103CD00000BF00BF70470000AC2900202ED60308AB
:103CE00010B50446611CC8B20022114630F0C2FB78
:103CF00010BD0000F0B587B0044614B9474890F8ED
:103D0000334FFF2C0CD10020FEF76AFA434890F89D
:103D1000330FFF287FD10020404981F8330F7AE02C
:103D20003F480078A0420DD1002C74D03D48006877
:103D3000002870D14FF4FA703A4908600120FEF76C
:103D40004FFA68E0022544B935480078002860D071
:103D50000021084634F05AF95BE0AA1CD1B2E8B25F
:103D600034F054F93049D1F8F002FCF768FAC7B2E0
:103D700039461320FFF7B8FC401CC6B2EAB22A4904
:103D8000D1F8F002314634F029F9002C1CDD642C06
:103D90001ADC04F1D301244A02EB81010868FCF724
:103DA0004EFAC7B239461320FFF79EFC401CC6B23C
:103DB000691CCAB204F1D3011B4B03EB81010868F3
:103DC000314634F00BF91DE0152101A8FCF716FA75
:103DD0001549D1F8F002FCF732FA06461248D0F83D
:103DE000F012324601A8FCF7F0F9214601A832F0A2
:103DF0004EF800208DF81700681CC2B2092101A8F6
:103E000034F0ECF84FF4FA70064908600120FEF730
:103E1000E7F90348047007B0F0BD0000AC290020AA
:103E200060020020E400002080B9030870B5FE485D
:103E300090F84F5F90F8C103A84206D14FF4FA61A1
:103E4000FA48A0F8831E002070BDF748B0F87A0F3A
:103E500000F47F40B0F5706F03D0F34890F8330F53
:103E600008B10120F0E7F248007858B10021EF488E
:103E700080F8C11E0822EF4900F6C2602DF04AFD0D
:103E800011F06CFA284618F027FF08B10120DBE793
:103E9000E748007848B1E8480078172805D1E74896
:103EA0000078022801D1062412E0E34800781728A0
:103EB0000AD1E2480078042806D10624DF480078B9
:103EC000401EDE49087003E028460EF0EDFE044671
:103ED000D54890F8230F38B10E2C05D00020D249D8
:103EE00081F84F0F0120AFE7CF4890F8480F18B97D
:103EF000CD4890F83A0F58B1102C09DAD048007B21
:103F00001F2805D00E20C84981F8330F01209BE7F8
:103F1000C7480078A8B9C448B0F9700F00280CDA77
:103F2000C149B1F9700F002801DB014600E04142B0
:103F300009B2BD4AA2F8701F03E00020BA49A1F8F7
:103F4000700FE01E0C2871D2DFE810F0B4050C00F1
:103F50006A05FF0070006905B3055D04700070001C
:103F600070006004B048B0F87A0F00F47060D0B10F
:103F7000AD48B0F87A0F00F47060B0F5706F0CD0F7
:103F800011220821042003F04BFBAD48807A401E2B
:103F9000A9490978081AA84908704720A249A1F838
:103FA0007A0F012050E7A048B0F87A0F442804D0D7
:103FB0009D48B0F87A0F462839D19B4890F8140FE5
:103FC000401C994981F8140F084690F8140F9C4939
:103FD0000979884203DD0120934981F8140F944840
:103FE000007878B19048B0F8700F30B18E48B0F9D1
:103FF000700F9349097988420ADD01208A4981F8C6
:10400000330F82E3884890F8140F8749A1F8700FA6
:10401000854890F8700F844981F8140F042008F047
:1040200091FD002003F06AF901200DE7FEE38248CC
:104030000078002834DD81480078002830DD814890
:10404000007800282CDD8048007818B101207849DC
:10405000087004E00120744981F8330FD1E77A48F1
:104060000078401C7849087001207649087008F0F3
:104070005FF908B90020E7E66B4890F8330F70B994
:10408000724B1A79724B93F8EB1F704B987803F0D0
:10409000C7FA6E488178FF226E4807F001FDB0E74D
:1040A0006148B0F9700F66281ADD5F48B0F9700FEB
:1040B0006C2815DA5C48B0F8700F6B2809D15A48A3
:1040C000B0F87A0F472804D00120574981F8330F00
:1040D00005E05549B1F8701F88B201F0CFFF90E7B5
:1040E0005148B0F8700F40B14F4890F8700F401E23
:1040F000514908700020534908704F48007810B1AA
:104100005048007888B94E4800794B490978884270
:1041100002DD4948007818B901204749087004E0D9
:1041200045480078401C444908700E204A490870F0
:10413000042008F007FD0020424908704749088024
:104140003E490870404908705BE73748D0F8720F65
:1041500020F480303449C1F8720F0846B0F87A0F65
:10416000442804D00846B0F87A0F462836D13048A3
:104170000078A8B12C48B0F8700F30B12A48B0F9D7
:10418000700F2F490979884204DD0120264981F802
:10419000330F36E7244890F8700F234981F8140F45
:1041A0002148B0F87A0F442808D11F4991F8141F0C
:1041B00001F2372188B223F0B1FC07E01A4991F8E7
:1041C000141F01F50F7188B223F00CFD0120164970
:1041D00081F8140FFF2008F0B5FC12E71248B0F880
:1041E0007A0F47287ED11648007BE0B91448807AC0
:1041F000134908800846C07A0871002048710E48AB
:10420000C1F806000120087315481649086003F03C
:104210002CFA312008F096FC0E200F49087000207F
:1042200008490870EDE61FE0AC290020AC390020F9
:10423000A5020020085A0020A3020020A1020020AD
:10424000A1590020A2020020A40200209A240020EC
:10425000AC490020245A0020A60200209A02002027
:1042600045CB000854020020FE48007B1F2815D0D3
:10427000FD48007890B9FB48D0F806000178F9486D
:10428000807A401E0844F94908700020F8490880E7
:10429000F8490870F8490870F8490870F348007840
:1042A00000281FD0F348007801287BD1F34800781C
:1042B000002877D0EC48007810B901F0C7FDA0E6DF
:1042C0000021EF4880F8C11EE84800781F286ED111
:1042D000EC4890F8810888B30020EA49A1F8960FCD
:1042E000084600E0BCE190F88108E4490978B1EBA8
:1042F000400F58DC00221146E3A007F0D1FBE5494E
:10430000DE4A1278891A481E0122072107F0C8FBED
:10431000E14901200FF05CFDDA49A1F8960F08464B
:10432000B0F8960F98B90021084602F03BF930B971
:10433000D44890F8CF03D949087062E637E0D649EF
:1043400000200FF045FDCF49A1F8960F1CE0CD48A5
:10435000B0F87A0F442817D0CA48B0F87C0800B2E9
:10436000C849A1F8700F0021012002F01BF9C548CF
:10437000B0F87C08C349B1F9701F884204DAC1481B
:1043800090F8CF03C5490870BE48B0F8960F00B248
:10439000BC49A1F8700F002003F016F8012003F0CB
:1043A00013F804E01FE00020B649A1F8700FB548EB
:1043B000B0F8700F38B1B348B0F8700F401E00B2BB
:1043C000AB49088004E00120AE4981F8330FC1E316
:1043D0000020A9490870A9490870AA4981F8330F3B
:1043E0000120A14908700025A0480078482874D011
:1043F00010DC412830D006DC192838D0252820D000
:104400003D281DD1B7E0422868D0462868D047280B
:10441000F7D173E04938092812D2DFE800F08BC0E9
:104420000599B41111BA9D009D49D1F82C010021C4
:1044300031F0ACFD18B100219248A0F87C1803259A
:10444000F9E0002015F04EF9052008F0D7FD002016
:1044500002F054FF0120F7E49149D1F8B00801219E
:1044600031F094FD08B102F037FE0325E3E00123AB
:104470008CA219461B2014F08BF80446012C06D19F
:10448000804890F805080A2804DD6C2402E0022C1C
:1044900000D16B246C2C01D06B2C1CD1804901EB1A
:1044A00084010868012131F071FDA0B16C2C05D1A7
:1044B000802280498048FBF788FE04E080227F4903
:1044C0007D48FBF782FE6F48D0F8720F20F4007031
:1044D0006C49C1F8720F0325ADE01DE04FE0FFE726
:1044E0006F49D1F818017449EA312BF045FF18B92A
:1044F0002420644981F8330F03259CE06849D1F8F2
:104500001C016D49DC312BF037FF18B924205D49BF
:1045100081F8330F03258EE06149D1F82001664907
:10452000E3312BF029FF18B92420564981F8330FC5
:10453000032580E05A49D1F824015F49F1312BF07D
:104540001BFF18B924204F4981F8330F032572E06F
:1045500019F042FE03256EE01CF01EFF44201DF002
:1045600041FE46201DF03EFE1AF090FC062027F08A
:10457000B1FC03255FE01AF07BFA03255BE009F04C
:10458000C3FE032557E04FF4805011F021FA0325B4
:1045900051E04FF4005011F01BFA03254BE000BF2F
:1045A000012347A200214A2013F0F2FF0446002C09
:1045B0003BDD0A2C39DC04F1510084B2A4F1520035
:1045C0000A2831D2DFE800F005090E12161A1E2261
:1045D000262B022011F0FCF926E04FF4804011F068
:1045E000F7F921E0012011F0F3F91DE0082011F0A6
:1045F000EFF919E0042011F0EBF915E0102011F0AB
:10460000E7F911E0202011F0E3F90DE0402011F06E
:10461000DFF909E04FF4806011F0DAF904E04FF4BB
:10462000006011F0D5F900BF00BF4FF6FE70844264
:10463000B6D1032500BF00BF95B1032D4BD109486A
:10464000807A401E09490978081A08490870002034
:10465000054908700649088006490870064935E092
:1046600044E00000A1590020A2020020A302002083
:104670009A020020A1020020A4020020A50200202E
:10468000AC390020AC290020504C5520434F444504
:10469000000000000A5A00206E4800209C02002002
:1046A00080B903084B4559424F4152442054595058
:1046B00045000000C0B60308CD2D002075A60308F4
:1046C00053454C454354204954454D00087002F071
:1046D00015FE012007E40020FC4981F8230F08465D
:1046E00090F8CF03FA490870012010E4F948FA491C
:1046F0000860FA48007850BBF948007828B1F348C0
:1047000090F8720F00F0080000B123E2F54800783D
:10471000401CF44908700020F3490870F148007803
:1047200002281FDD01202AF0DBFEF04890F8EB0F95
:10473000072806D101202AF0E1FE0621002010F012
:104740000BFFEA4890F8EB0FE949C8700AE0E64829
:10475000007810B9E248007820B90120DB4981F8DF
:10476000330FF7E10120E349087007F0E1FD08B9D4
:10477000002017E4D54890F8330FB0BBD948007833
:1047800000283FDDD648007817283BD0D548007870
:1047900001280BDDD64B1A79D978987802F040FFC2
:1047A000D348C2788178D44807F07AF9CB480078AA
:1047B000D8B1CC480078401CCA49087001202AF0C2
:1047C0008FFECA4890F8EB0F072806D101202AF087
:1047D00095FE0621002010F0BFFE002002F08EFDA5
:1047E00007F0A6FD10B900201FE40BE0B748B0F8B1
:1047F000720F00F4807028B9BD488178FF22BE484E
:1048000007F04EF9A6E127F039F8A3E1AF48D0F858
:10481000720FBA490840AD49C1F8720F0846B0F8A6
:104820007A0F4FF24501884221D100E07BE145201B
:10483000A649A1F87A0F0020A9490870B04890F85D
:104840004F0100F00801AE4880F84F11002002F03F
:1048500055FD33F097FA082002F0B6FD9B49D1F8D8
:10486000A60F0822002107F01BF94520F3E5974821
:10487000B0F87A0F00F4706090B143209349A1F82A
:104880007A0F002002F03AFD082002F09DFD8F49CA
:10489000D1F8A60F0822002107F002F94320DAE53B
:1048A00098488D4908608F48007868BB9148007827
:1048B00050BB8648B0F87A0F442804D08348B0F83B
:1048C0007A0F462809D1002085490870FF2008F09A
:1048D00039F90E208C4908703CE108F045FB0020B6
:1048E0007A4981F8230F4720A1F87A0F8748006999
:1048F000C1F8A60FD1F8A60F0822002107F0D0F8C2
:1049000004208149087025E175480078C8B37548CE
:104910000078012836DD72480078332832DA704892
:10492000007838282EDD6E480078C0282ADA6C48D6
:104930000078C32826DD6A480078232822DA6848F0
:10494000007824281EDD6648007815281AD06448AF
:104950000078162816D062480078132812D000205C
:104960006B4908805F4908705F4908705B490870AF
:10497000564890F8C703554981F84F0FFFF756FA8C
:104980004BE0FFE7002033F087FD6248007BD0B1A9
:1049900053480078B8B9604800885E4908805E488E
:1049A00080780871002048714D48C1F80600002049
:1049B000087359480079887257488079C872012075
:1049C0004749087014E0464800781F2803D044483F
:1049D0000078202804D14748007808B12AF048FC24
:1049E0004C48807A401E3E490978081A3C490870B4
:1049F0000020364981F8330F384908703849097862
:104A00003031C8B208F09EF800203A490870404999
:104A10000880344908703449087001201BE500BF44
:104A20002A48D0F8720F00F48030E0BB2748B0F875
:104A30007A0F47283CD12F480078A0B33748007838
:104A4000022835DD35480078401E26490870274881
:104A500090F8EB0F002810DD244991F8EB0F02F0DD
:104A6000B3FC224890F8EB0F401EC1B21F4880F8FB
:104A7000EB1F90F8EB0F1E49C8701C4991F8EB0F23
:104A800002F0A2FC0020154908701749087007F0D1
:104A90004FFC58B10D4890F8330F38B9144881785D
:104AA000FF22154800E003E006F0FAFF0120D2E4FF
:104AB00000BF00BF0548D0F8720F00F4803078B313
:104AC000E0B20549096888470120C4E4AC29002008
:104AD0009C02002041CB000854020020A5020020C7
:104AE000A3020020A1020020A4020020AC49002063
:104AF0009A240020A2020020245A0020C7FFFEFFB3
:104B00005639002045CB0008A602002080B90308D2
:104B10009A020020A15900207CCE0308A0020020A8
:104B2000FFE7002097E41348B0F8830E40F6B73152
:104B3000884208DD0F48B0F8830E40F61C418842D9
:104B400001DA002087E40C48407808B1012082E4B3
:104B5000002080E400BF09480078022808D00848F7
:104B600090F8720F00F0100010B9002002F0C6FBA0
:104B7000012070E4AC3900202F480020A102002061
:104B8000AC29002010B52848B0F8830EB0F57A7F24
:104B900047DA2548B0F8830E642190FBF1F201FB5F
:104BA000120000283DD12148B0F8700F20B11F48F5
:104BB000B0F9700F632804DD01201C4981F8330F20
:104BC00010BD1948B0F8830EB0F5487F29D01648BB
:104BD000B0F8830E1549B1F8701F084481B212482D
:104BE000A0F8831E114890F8520FB8B10E4890F803
:104BF000E50E00F003000D4981F8300F0C4800F17C
:104C000024010A6802604A684260097A0172002041
:104C1000064981F8520F10F0A1FB02E0002005497F
:104C200008700020CCE70000AC390020AC2900203F
:104C30006D480020A502002010B5774890F8F803D1
:104C400000F0080000287DD0744800780D2803D0BB
:104C5000724800780C2875D1704800780C2803D170
:104C600030206F4981F842006D4890F84310303988
:104C700090F8420001EB0010C4B2262C14D008DCDE
:104C8000022C0FD0202C0ED0212C16D0252C36D162
:104C900028E0272C27D0282C07D0292C24D0372CEB
:104CA0002DD10FE000BF00BF00BF5B4890F8FF03AD
:104CB00000F0800000B923E000BF0320564981F8CE
:104CC000350F1DE0544890F8FF0300F0100040B18C
:104CD000534890F84400392803D102204E4981F806
:104CE000350F0DE000BF00BF4B4890F8FF0300F008
:104CF000400018B10420484981F8350F00E000BF9A
:104D000000BF454890F8350F01281BDD454846494E
:104D10000A6802604A684260097A0172404890F865
:104D20004D10303990F84C0001EB00103D494870AF
:104D30003B4890F84B10303990F84A0001EB0010D6
:104D4000C1B200E066E037488170354890F849000C
:104D50003038C1B23348C1702F4890F8350F04285D
:104D600012D1304824302F490A6802604A684260F4
:104D7000097A01720321A0F6E56080F8E51E0120A2
:104D8000254981F8520F11E0234890F8430F68B984
:104D90002448413823490A68C2654A680266097A8C
:104DA00080F8641001201C4981F8430F1A4890F8DC
:104DB000350F022803D107201849087011E0202080
:104DC000174981F8430081F84200134890F8350FE5
:104DD000042803D00020104981F8520F05200F4904
:104DE000087000240DE0C4F148000D49085CC4F1CE
:104DF0004E010B4A50542020C4F148015054601C0D
:104E0000C4B2072CEFDB082205494E310548401C8F
:104E10002CF080FD10BD0000AC290020A502002070
:104E2000BA5900206D48002060CB030870B512F01D
:104E30009FFC08B9002070BD10F05EFB04466E496F
:104E400081F84F0F01F5005090F8E90F00F02000B5
:104E5000002876D020460DF027FF0C2829D005DC4D
:104E600048B104281BD006286CD11CE00E286BD05A
:104E70000F28F9D114E06148007878B1202060490A
:104E80008870487008700020C870082203215C48B0
:104E900006F006FE002059490870CCE700BF00BFAD
:104EA00004F58070C7E7032002F06EF804F5807007
:104EB000C1E70020534908705348B0F8E90F20F0CB
:104EC00040015148A0F8E91F50480078401C4F4964
:104ED00008700846007840B101280CD0022810D094
:104EE000032814D00020087000BF08220021612090
:104EF00005F0BCFB22E008220021412005F0B6FBB2
:104F00001CE0082200212A2005F0B0FB16E020203A
:104F10003B498870487008700020C870082203213F
:104F2000374806F0BDFD08220021402005F09EFB19
:104F30000020324908703249087000BF00BF0020CD
:104F400079E73DE02DE0FFE72C48007820B92A48BA
:104F500090F8CF032E4908702848007870B12020BF
:104F600027498870487008700020C8700822032103
:104F7000234806F095FD0020204908702248B0F82B
:104F8000E90F20F020012048A0F8E91F152221494F
:104F900000F6D470FBF719F9082033F0F3FA00207B
:104FA00049E71848007858B918480078032803D111
:104FB000204612F097F93EE720460EF099F93AE7BD
:104FC000402C16DA144800EB44000588302D01DB34
:104FD000392D01DD2E2D01D128462CE72F2D08D1AA
:104FE000054890F8720F00F0100010B943F230003D
:104FF00021E744F480701EE7AC290020D401002092
:10500000D0010020D8010020AC490020D5010020AB
:105010009C02002052250020CD2D002010B508480C
:10502000007808490978884201D1002010BD33F08A
:1050300099FA12F070FE044802490978405CF5E7DD
:1050400065000020660000204405002010B52F48B0
:105050008168A0F6A270D0F8A20F81420AD32B4833
:105060008168A0F6A270D0F8A20F081A27494969F2
:105070000C1A05E02648D0F8A20F24498968441A82
:10508000B4F5806F2AD22148007E022826DA02F089
:10509000FDFA2049D1F840030822092106F000FD5D
:1050A0000320FDF79DF808E01B4991F8F513491E10
:1050B000C8B2FEF715FE00B10AE012F059FB002855
:1050C000F2D010F019FA144991F8C1138842EBD1CB
:1050D00000BF0E48007E401C0C4908760B488168D2
:1050E0000B48D0F8A20F814209D3084881680848CC
:1050F000D0F8A20F081A05494969081A10BD0448DA
:10510000D0F8A20F01498968401AF7E74E490020FC
:10511000AC39002080B90308AC290020FEB5064652
:105120000C460CB90020FEBD18480168009141688A
:105130000191007A8DF808000A2194FBF1F201FB3D
:10514000124000EBD071C1F347050A2094FBF0F048
:10515000C1B20DF101004155204604EBD071491058
:10516000A4EB410139B10DF10100405D0007010ED2
:105170000DF1010041556946304603F0F5F901286B
:1051800001DA0020CFE70120CDE7000060CB030863
:1051900070B58AB00446AD4890F8F80300F00400FA
:1051A000002879D0A94890F8850830B9A74890F828
:1051B000720F00F006000028F3D00025A34890F8F5
:1051C000720F00F00200002867D0A1480168079123
:1051D00041680891007A8DF824009C4890F8842852
:1051E0009C490DF11D00FAF7F0FF07A800F08CFEB6
:1051F00008B90AB070BD012C13D1974894490A68C8
:1052000002604A684260097A0172904890F8276FFC
:1052100003208E4981F8270F2BF05AFF8B4880F826
:10522000276F8D480168049141680591007A8DF8D7
:10523000180000208DF81000854801680191416830
:105240000291007A8DF80C0007E007A904A82CF061
:10525000E7FB824901A8FBF78BFC07A904A803F030
:1052600083F90028F1DA7E4890F8CA0E8DF8040020
:1052700079491B317848FBF77BFC794890F8CA6E76
:10528000002180F8CA1E72480168049141680591A6
:10529000007A8DF8180009E0D6E03FE007A96E48D3
:1052A0002CF0BEFB6D4904A8FBF762FC07A96A4815
:1052B00003F05AF90028F1DA8DF8106001A904A86A
:1052C0002CF0AEFB002104A828F0ECFF04A800F0AD
:1052D0001BFE00285AD0604824385D490A680260E5
:1052E0004A684260097A0172584890F884285949FE
:1052F0000F3901F6B340FAF768FF04A9564824387D
:1053000014F02EFB564890F8A60E80F08001544809
:1053100080F8A61E022C39D0052537E04B4890F8BE
:10532000720F00F0040088B34B48243848490A68DB
:1053300002604A684260097A0172444890F8842801
:1053400044490F3901F6B340FAF73FFF04214448BE
:1053500080F8A61E00F6DC6100F6A66014F000FBE3
:105360003D491B31A1F13F0014F0FAFA00213A48FF
:10537000243828F097FF3A4890F8A60E80F0800174
:10538000374880F8A61E022C00D01125002D5BD0D6
:1053900031492439A1F1B20018F02AFA00202B4932
:1053A00081F8310F10E00DF00DFC27F027F92948A6
:1053B000A1384078A84200D10DE0244890F8310F80
:1053C000401C224981F8310F204890F8311F90F895
:1053D00062078142E7DB00BF1C48D0F8720F40F043
:1053E00004001A49C1F8720F1B483F380168079141
:1053F00041680891007A8DF8240017483F3800F181
:105400001B010A6802604A684260097A01720F480B
:1054100090F884280F490F3901F6CE40FAF7D5FEEF
:10542000FBF72CFD0C483F38079901600899416053
:105430009DF8241001721CB100F11B01FBF798FBD1
:105440000120024981F86A0F00BFD2E6AC29002092
:1054500060CB0308AF3B00207648002069CB0308EF
:10546000AC3900202DE9F0410026FE4890F84F5F4E
:1054700090F84F1F90F8D003814204D112F072F9D6
:105480000120BDE8F081F74890F8330F08B1002003
:10549000F7E728460DF008FC0446102C01DB00203D
:1054A000EFE7022C03D1F0480078002802DD00204D
:1054B000EE490870EB4890F8230F40B30E2C1ED134
:1054C00032F060FC0020E74981F8230F0021E84812
:1054D000A0F8831E002001F011FF0020E5490870AC
:1054E000E548807A401EE5490978081AE3490870C2
:1054F00009783031C8B207F025FB0120C1E7062C3E
:1055000005D00021DA48A0F8831E0120B9E70B2C52
:1055100030D006DC012C7DD0022C7CD0062C7BD137
:10552000F8E00C2C79D00D2C78D00E2CF7D1CD488A
:10553000B0F87A0F00F47060D0B1CA48B0F87A0FB2
:1055400000F47060B0F5706F12D0112208210420B1
:1055500002F066F8C848807A401EC8490978081ADF
:10556000C64908704720BF49A1F87A0F012088E793
:10557000002086E7BB48B0F87A0F432804D0B9482A
:10558000B0F87A0F45284FD1B64890F8250F80F033
:105590008000B44981F8250F20221521B848FAF778
:1055A00026FEB849D1F88000FAF749FE0746B5480B
:1055B000D0F880103A46B248FAF707FEA94890F8AA
:1055C000250F00F0800098B1A64890F8200F411CEC
:1055D000AB48C01D30F040FC2D20A9490872A148FD
:1055E00090F8200F4100A648093030F050FC0EE042
:1055F0000121A348C01D30F02FFC2D20A0490872C6
:10560000984890F8201F9E48093030F040FC08224E
:10561000092104E048E02CE09AE307E08CE1984897
:1056200006F03EFA01202CE700202AE78D48B0F86A
:105630007A0F472806D08B48B0F87A0F4FF2450111
:10564000884214D1874890F8720F00F0100070B1B2
:105650008D4890F8E90F00F0200018B1032001F008
:1056600093FC02E0022001F08FFC012009E70020FA
:1056700007E77C48B0F87A0F432813D1794890F8AF
:10568000F603401C794909780843784908700120DD
:1056900001F07CF97548007880F08000734908704B
:1056A0000120EEE60020ECE66E4890F8FA0300F0E8
:1056B000200068B36C48007850BB6A48B0F8720F9D
:1056C00000F4006088B901F0BFFF6E49D1F8E80727
:1056D0000822042106F0E4F96248D0F8720F40F481
:1056E00000606049C1F8720F10E001F0ADFF65493C
:1056F000D1F8EC070822042106F0D2F95948D0F875
:10570000720F20F400605749C1F8720F0120B8E60B
:105710000020B6E65948007858B15248B0F87A0FE0
:1057200000F4706028B94F4890F8230F08B90020A2
:10573000A7E64C48B0F87A0F47287CD14948B0F921
:10574000700FA0F29310F0B1932802D0942873D177
:105750000CE0444890F8F503401E4C49088027F0BF
:10576000D3FB002001F0CAFD01208AE63D4890F8F5
:10577000F503401E4549088027F0C6FB002001F0D4
:10578000BDFD01207DE632F0FDFA0022114640A069
:1057900006F086F903223C495E3939480FF030FFA4
:1057A00000203749887100220521354806F078F934
:1057B00000220C2138A006F073F9032232495A392D
:1057C0002F480FF01DFF00202D4988710022112164
:1057D0002B4806F065F90122002131A006F060F99E
:1057E00003222949523926480FF00AFF0020244994
:1057F000887101220521224806F052F901220C216C
:1058000029A006F04DF903221F494E391C480FF01C
:10581000F7FE00201A49887101221121184806F06C
:105820003FF90222002122A006F03AF9032216498C
:105830005639134801E07DE073E00FF0E1FE0020EF
:105840000F498871022205210D4806F029F902222C
:105850000C2119A006F024F903220B494A39084803
:105860002EE00000AC290020A5020020A8020020A4
:10587000AC390020A1020020A1590020A302002081
:10588000645A002080B90308AC4900209802002027
:10589000486561643D000000526561643D000000A0
:1058A00046726F6D3D000000456E64203D000000B3
:1058B0004E6578743D0000004D4158203D000000C9
:1058C0000FF09EFE0020FE49887102221121FC4843
:1058D00006F0E6F8002415E0E1B200200FF03CFEEF
:1058E000F7480FF04FF8F74991F85B1F01F00401FA
:1058F00009B1062100E004210846F14914F0E2FD57
:10590000601C04B2032CE7DB002001F0F7FCED483B
:10591000D0F8720F40F48020EA49C1F8720F0120DC
:10592000AFE5E948007818B12020E64981F8330F47
:105930000020A6E50020A4E5E24890F8250F20F01D
:105940008000E04981F8250F002081F8230FDE4810
:10595000007838B10822DD49DD482BF0DBFF0FF07D
:10596000FDFC03E00020D749A1F8700FD54890F85E
:10597000480F78B1D348B0F8700F01280AD0D14849
:10598000B0F8700F052805D00E20CE4981F8330FEE
:10599000002076E5CB48B0F87A0F452809D1C948F0
:1059A00090F83A0F28B12F20C64981F8330F002014
:1059B00067E5C448B0F87A0F47280BD1C148B0F862
:1059C000700F032806D0BF48B0F8720F00F4806053
:1059D00000B101260020BF490870BF48BF490860D8
:1059E000B848B0F9700F06286FD2DFE800F0031254
:1059F0007597B93AB4480078002805DD0120B1490F
:105A000081F8330F00203CE52CF024F9002501201B
:105A100037E5012029F0C0FC32F0B4F943254320DA
:105A2000A849A1F87A0F01244E20AD490870A54875
:105A300090F8EA0300F0010018B10020A149A1F894
:105A40007C0F0020A7490870A7490870A749C860C3
:105A50009C48D0F8720F20F480309A49C1F8720F38
:105A6000EAE0012029F098FC9648B0F87A0F452822
:105A700006D09F49D1F824019E4900F05BFA28B373
:105A800032F080F9452500209849C86045208D49AD
:105A9000A1F87A0F0524084690F8EA0300F0010007
:105AA00010B10020A1F87C0F4E208D490870002015
:105AB0008C4908708C4908708248D0F8720F20F425
:105AC00080308049C1F8720FB6E0ACE024207D49F7
:105AD00081F8330F0020D4E4012029F05DFC7948DF
