:020000040800F2
:10000000E8D0002045010008058001088D3901086D
:10001000497D01087D2900083559030800000000CA
:10002000000000000000000000000000CDED02080C
:10003000DDA30008000000004DB00108091B030803
:100040005F0100085F0100085F0100085F01000810
:100050005F0100085F0100085F0100085F01000800
:1000600075E400085F0100085F0100085F010008F7
:100070005F0100085F0100085F0100085F010008E0
:100080005F0100085F0100085F0100085F010008D0
:10009000094F03085F0100085F010008ADE4000894
:1000A0005F0100085F0100085F0100085F010008B0
:1000B000211C0308D91D03085F0100085F01000827
:1000C0005F0100085F0100085F0100085F01000890
:1000D0005F01000889470308594803084949030894
:1000E0005F0100085F0100088D4C03085F010008F4
:1000F0005F0100085F0100085F0100085F01000860
:100100005F01000879E102085F0100085F01000853
:100110005F0100085F010008E91E030819200308B9
:100120005F0100085F0100085F0100085F0100082F
:10013000DFF80CD000F0EEFA00480047AD8203086B
:10014000E8D000200648804706480047FEE7FEE763
:10015000FEE7FEE7FEE7FEE7FEE7FEE7FEE7FEE777
:10016000911B0308310100082DE9F05F05460020CE
:1001700092469B4688460646814640241BE0284618
:1001800041464746224600F0C4F853465A46C01A34
:10019000914110D311461846224600F0ABF82D1AB3
:1001A00067EB01084F4622460120002100F0A2F82B
:1001B00017EB00094E41201EA4F10104DFDC484684
:1001C00031462A464346BDE8F09F40EA01039B07BB
:1001D00003D009E008C9121F08C0042AFAD203E0BC
:1001E00011F8013B00F8013B521EF9D27047D2B220
:1001F00001E000F8012B491EFBD270470022F6E710
:1002000010B513460A4604461946FFF7F0FF20468C
:1002100010BD421E12F8013F002BFBD111F8013B2B
:1002200002F8013B002BF9D1704710B5044604E0F9
:100230000B7800F8013B03B1491C521EF8D220464E
:1002400010BDCAB2401E10F8011F8A4202D0002918
:10025000F9D100207047421C10F8011B0029FBD186
:10026000801A704730B504460020034600E05B1C4E
:10027000934203D2E05CCD5C401BF8D030BD034616
:1002800011F8012B00F8012B002AF9D1184670470C
:1002900030B505460020034600E05B1C934205D2C2
:1002A000EC5CC85C201A01D1002CF6D130BD70B5D1
:1002B000064636F0A5FA046805460A2200213046B3
:1002C00000F037F82C6070BD30B50B4601460020B9
:1002D0002022012409E021FA02F59D4205D303FA08
:1002E00002F5491B04FA02F52844151EA2F1010289
:1002F000F1DC30BD202A04DB203A00FA02F10020B4
:1003000070479140C2F1200320FA03F31943904053
:100310007047202A04DB203A21FA02F000217047BE
:1003200021FA02F3D040C2F120029140084319465D
:1003300070472DE9F04791460F4680460446002657
:1003400014F8015B2DB100F009FA0068405DC007A8
:10035000F6D12B2D02D02D2D18D0641E4A463946D9
:10036000204600F0FFF927B13968A14201D1C7F852
:10037000008071054FF002040BD54042002803DDD8
:1003800036F03EFA0460A007BDE8F08746F48066C8
:10039000E4E70028F8DA36F033FA04606FF0004042
:1003A000F2E72DE9FE4F804681EA0300C00F0C46BC
:1003B000009021F0004123F00045B8EB0200A94174
:1003C00005D24046214690461C460B46024623F085
:1003D0000040104347D0270DC7F30A00C3F30A516A
:1003E0000290401A019040286BDAC3F3130040F4E6
:1003F000801B0098924620B10023D2EB030A63EBE6
:100400000B0B01985946C0F140025046FFF772FFAE
:1004100006460D4650465946019A00F08DF910EBFC
:1004200008006141002487EA115284EAE7731A4305
:1004300040D0009A62B3019A012A4FEA075215DCB4
:10044000001B61EB02014FF0004202EA0752CDE9C6
:100450000042001C41F5801132462B4600F0E0F9C5
:1004600003B0BDE8F08F40462146F9E7001B61EB81
:100470000201001C41F5801300185B412018A2F511
:10048000001747EB030140EAD570B6196D4111E042
:100490006D084FEA360645EAC0754FEA0752001B61
:1004A00061EB0201001C41F5801149084FEA300060
:1004B0000019514132462B4603B0BDE8F04F00F021
:1004C000A0B90098012240000023D0EB020263EBA8
:1004D000E073009821464FEAE074B8EB000061EB4E
:1004E0000401E9E783F000435BE781F0004158E74E
:1004F0002DE9FE4F81EA030404F0004421F000419D
:1005000000944FF0000B23F0004350EA01045ED04A
:1005100052EA03045BD0C3F30A54C1F30A552C44D6
:10052000A4F2F3340194A0FB0254C1F3130141F48B
:100530008011C3F3130343F4801301FB024400FB57
:10054000034E840A970A44EA815447EA8357A4FB7E
:10055000076802958D0A05FB07854FEA932C04FB7B
:100560000C542705029D4FEA065847EA1637B5EBAB
:1005700008056EEB070C870E920E47EA811742EAD8
:100580008312A7FB0201B6EB0B0164EB00042B0DF9
:1005900043EA0C335E1844EB1C50DA465146E7FB45
:1005A0000201C5F313044FEA0B3343EA14534FEA35
:1005B0000432019C43EA0603A4F10C040294009C5B
:1005C000CDE900B400F02CF903B0BDE8F08F0020B5
:1005D0000146F9E72DE9F04D81EA030404F0004BF0
:1005E00021F0004514464FF0000A23F0004150EA84
:1005F000050220D054EA01021DD0C5F30A57024675
:10060000C5F31303C1F31300C1F30A5640F4801578
:1006100043F48013A7EB0608101BD64608F2FD38FA
:1006200073EB050002D308F1010801E092185B4169
:10063000B8F1000F03DA00200146BDE8F08D00207C
:100640004FF48011064684460EE0171B73EB050736
:1006500005D3121B63EB050306434CEA010C490862
:100660004FEA300092185B4150EA0107EDD152EA9F
:10067000030012D082EA040083EA0501084305D092
:10068000101BAB4106D20122002306E000224FF0EE
:10069000004302E06FF0010253101AEB06004CEB2E
:1006A000085110EB0A0041EB0B01BDE8F04D00F0E2
:1006B000A8B8C1F30A52C1F3130140F2FF3341F469
:1006C00080119A4202DA00200146704740F233431B
:1006D0009A42A2F2334202DC5242FFF71ABEFFF7FF
:1006E00009BE000030B5041E71F1000404DB4FF0B8
:1006F0000044404264EB0101141E73F1000405DB69
:100700001C464FF00043524263EB0403994208BF7A
:10071000904230BD064C074D06E0E06840F0010312
:1007200094E8070098471034AC42F6D3FFF704FD75
:10073000700B0508900B0508202A06DBCB17203A22
:1007400041FA02F043EAE07306E041FA02F3D040D6
:10075000C2F1200291400843194670470048704793
:1007600020ED04082DE9F05F824600780027154649
:100770008B460AF10104B946302801D09DB113E03F
:1007800014F8010B0127782803D0582801D045B16F
:100790000AE00DB1102D07D10027102514F8010B28
:1007A00002E0082500E00A250026B0460EE005FB21
:1007B000080005FB06F1012701EB10461FFA80F83F
:1007C000B6F5803F00D3B94614F8010B294600F076
:1007D00075F80028EBDABBF1000F05D00FB1641EED
:1007E00000E05446CBF80040B9F1000F06D036F0D7
:1007F00007F802210160C81EBDE8F09F48EA0640E4
:10080000FAE710B5141E73F1000408DA401C41F138
:10081000000192185B411A4301D120F0010010BD84
:100820002DE9F04D92469B4611B1B1FA81F202E0FA
:10083000B0FA80F220329046FFF75CFD04460F4686
:1008400040EA0A0041EA0B0153465A46084313D0D6
:10085000114653EA010019D0C8F140025046FFF793
:1008600058FD05460E46504659464246FFF742FDA2
:10087000084305D0012004E020463946BDE8F08D4C
:100880000020054346EAE0762C4337430A98630587
:10089000E40AA0EB08000022FD0A44EA47540A30AB
:1008A00002D500200146E9E7010510196941DDE99B
:1008B000084500196941BDE8F04DA2E73A2800D289
:1008C000303820F02002412A01D3A2F137008842BB
:1008D00001D34FF0FF30704770B58C1810F8015BF2
:1008E00015F0070301D110F8013B2A1106D110F8C9
:1008F000012B03E010F8016B01F8016B5B1EF9D1CD
:100900002B0705D40023521E0DD401F8013BFAE752
:1009100010F8013BCB1A921C03E013F8015B01F8BD
:10092000015B521EF9D5A142D8D3002070BD000052
:1009300000B591B001214FF404702AF06BFD012144
:1009400008462AF047FD4FF440402AF037FD26487C
:1009500009F09EF925480190254802900020039057
:10096000032004900020059080200690400007900E
:10097000800008902020099000020A9000200B902F
:1009800001A9194809F02AFA0121174809F074F958
:1009900000200C9001208DF834008DF835004FF4C4
:1009A00060200E9000200F9003208DF840000CA9CD
:1009B0000E484C3800F034F8072301220E210B4872
:1009C0004C3800F055F8072302220F2107484C3815
:1009D00000F04EF803231A460A2104484C3800F070
:1009E00047F811B000BD0000080002404C2401404F
:1009F0008000002021B1826842F00102826003E0A1
:100A0000826822F001028260704721B1826842F45C
:100A10008072826003E0826822F480728260704794
:100A200030B502460020002350680F4C20400D795D
:100A30000C6844EA05242043506090680B4C204029
:100A4000D1E902542C434D7944EA45042043906097
:100A5000D06A20F470000C7C641EE4B2234340EAA8
:100A60000350D06230BD0000FFFEF0FFFDF7F1FF44
:100A7000F0B504460D4600200021092D11DDE06887
:100A8000A5F10A0606EB4607072606FA07F1884392
:100A9000A5F10A0606EB460603FA06F10843E060F4
:100AA0000CE0206905EB4507072606FA07F18843A5
:100AB00005EB450603FA06F108432061072A0FDA21
:100AC000606B561E06EB86071F2606FA07F1884361
:100AD000561E06EB860605FA06F10843606322E01F
:100AE0000D2A0FDA206BD61F06EB86071F2606FAA3
:100AF00007F18843D61F06EB860605FA06F1084380
:100B0000206310E0E06AA2F10D0606EB86071F26BF
:100B100006FA07F18843A2F10D0606EB860605FAF0
:100B200006F10843E062F0BD21B1826842F4A00200
:100B3000826003E0826822F4A002826070470000B5
:100B40002DE9F04105460E46287800F080004D4919
:100B50000870307800F080004B490870287800F069
:100B600007004A490870307800F0070048490870CB
:100B700011214848FFF742FB11214748FFF73EFB90
:100B80004448D5F801100160D5F80510416042488D
:100B9000D6F801100160D6F8051041603B48007896
:100BA0003B49097888420FDD07E039480078401C4E
:100BB00037490870384801F013F834480078344950
:100BC00009788842F1DC14E030480078304909782F
:100BD00088420EDA07E02D480078401C2B49087047
:100BE0002C4800F0FDFF29480078294909788842FF
:100BF000F1DB072425E02748005D2749095D88428D
:100C000000DD20E02348005D2349095D884216DAB3
:100C1000002409E01F48075D1F48005D1D49085575
:100C20001D480755601C04B2082CF3DB16480778F2
:100C300014480078144908701248077003E0601ED9
:100C400004B2002CD7DA00BF0E4800780E490978AC
:100C5000884202D100F024F801E030F0B5FB0948E9
:100C600000780E49087008F0F9FA0C4800782870EE
:100C700008480168C5F801104068C5F80500BDE8DE
:100C8000F081000007020020080200200902002075
:100C90000A020020041D0020151D0020060200206D
:100CA00070B500210024002030E01A4D2D5C05F0C5
:100CB0000F05184E365C361106EB860605EB460529
:100CC000EAB2154D2D5C05F00F05134E365C36115A
:100CD00006EB860605EB4605EBB2D5182544E9B2CE
:100CE000632904DDA1F16405E9B2012400E00024D8
:100CF0000A2591FBF5F605FB16150A2691FBF6F67B
:100D000005EB0615034E3554451C28B21028CCDBE4
:100D100070BD0000041D0020151D002010B510F04E
:100D200009F8144890F8C2061349096808441249A2
:100D3000086000200F4981F8290F15E00D4890F850
:100D4000291F00F2C46000EBC10100F63D300A68C3
:100D500002604968416000F05BFA064890F8290F8C
:100D6000401C044981F8290F024890F8290F0628F1
:100D7000E4DB10BD681D00200002002010B50FF05C
:100D8000E9FF144890F8F706134909680844124926
:100D9000086000200F4981F8290F15E00D4890F8F0
:100DA000291F00F2F96000EBC10100F608300A6863
:100DB00002604968416000F02BFA064890F8290F5C
:100DC000401C044981F8290F024890F8290F062891
:100DD000E4DB10BD681D00200002002010B519489A
:100DE000B0F8501FB0F82907814229DA10F07CF8DA
:100DF000144890F82D0714490968084412490860FE
:100E00000020104981F8290F15E00E4890F8291F9D
:100E100000F2327000EBC10100F6CF200A680260D8
:100E20004968416000F0F4F9064890F8290F401C29
:100E3000044981F8290F034890F8290F0628E4DBBC
:100E400010BD0000681D00200002002010B510F049
:100E50009BF8144890F8650713490968084412493B
:100E6000086000200F4981F8290F15E00D4890F81F
:100E7000291F00F2677000EBC10100F69A200A6892
:100E800002604968416000F0C3F9064890F8290FF4
:100E9000401C044981F8290F024890F8290F0628C0
:100EA000E4DB10BD681D00200002002010B51948C9
:100EB00090F8021F90F89707814229DA10F074F831
:100EC000144890F89A0714490968084412490860C0
:100ED0000020104981F8290F15E00E4890F8291FCD
:100EE00000F29C7000EBC10100F665200A68026008
:100EF0004968416000F08CF9064890F8290F401CC1
:100F0000044981F8290F034890F8290F0628E4DBEB
:100F100010BD0000681D00200002002010B52B4805
:100F2000D0F8A1042A4908600020284981F8290F37
:100F300015E0264890F8291F00F28F6000EBC101F0
:100F400000F672300A6802604968416000F060F99A
:100F50001E4890F8290F401C1C4981F8290F1B4896
:100F600090F8290F0628E4DB1848B0F8521FB0F8B3
:100F7000CC07814229DA10F089F8144890F8D0079C
:100F80001349096808441249086000200F4981F894
:100F9000290F15E00D4890F8291F00F2D27000EBE0
:100FA000C10100F62F200A6802604968416000F024
:100FB0002FF9064890F8290F401C044981F8290FA1
:100FC000024890F8290F0628E4DB10BD681D0020B8
:100FD000000200201CB52A48B0F8CD4E294812F076
:100FE000CFF9284BDA78997818880DF0A6FB2649B6
:100FF0004881B4F5006F3DDA4FF4004101EB041075
:10100000214A0A32102136F065FB1F490C8000206E
:101010004880009001904FF4804101EBC4006A4683
:10102000082136F057FB1648B0F8CD0E401C81B2AF
:101030001348A0F8CD1EC4F3090413480088B0F586
:10104000806F04DA10480089B0F5804F09D00E484F
:101050000088B0F5806F11DB0B480089B0F5C04FF8
:101060000CD109481A3000EBC400009901600199C5
:10107000416003E05A20024981F8030F1CBD0000C3
:10108000681D00201E4D00208959002010B510F069
:101090008FFE144890F8080813490968084412495B
:1010A000086000200F4981F8290F15E00D4890F8DD
:1010B000291F00F61A0000EBC10100F6E7100A68CC
:1010C00002604968416000F0A3F8064890F8290FD3
:1010D000401C044981F8290F024890F8290F06287E
:1010E000E4DB10BD681D00200002002010B54FF0A9
:1010F000FF3010F027FF144890F8190813490968C9
:1011000008441249086000200F4981F8290F15E0B2
:101110000D4890F8291F00F64A0000EBC10100F6C7
:10112000B7100A6802604968416000F071F806482B
:1011300090F8290F401C044981F8290F024890F8C3
:10114000290F0628E4DB10BD681D002000020020E6
:1011500010B510F027FF144890F88008134909686B
:1011600008441249086000200F4981F8290F15E052
:101170000D4890F8291F00F6870000EBC10100F62A
:101180007A100A6802604968416000F041F8064838
:1011900090F8290F401C044981F8290F024890F863
:1011A000290F0628E4DB10BD681D00200002002086
:1011B00010B510F07DFF144890F8BA08134909687B
:1011C00008441249086000200F4981F8290F15E0F2
:1011D0000D4890F8291F00F6BC0000EBC10100F695
:1011E00045100A6802604968416000F011F806483D
:1011F00090F8290F401C044981F8290F024890F803
:10120000290F0628E4DB10BD681D00200002002025
:1012100070B5664890F8140F00B170BD644890F83E
:10122000010200B9F9E76348407800B9F5E75F4883
:1012300090F81C0F00B1F0E700245D4890F801021F
:1012400000F0010018B15B484078204484B258484F
:1012500090F8010200F0020018B15648407820448E
:1012600084B2534890F8010200F0040018B15148CC
:101270004078204484B24E4890F8010200F0080003
:1012800018B14C484078204484B22546474890F82D
:10129000290F06285CD2DFE800F003061B30455A10
:1012A0000024002555E04148B0F82D0500B9B4E709
:1012B0003E48B0F82D053D49B1F84C1F401A68432F
:1012C00085B23A48B0F84C0F401E604384B240E00B
:1012D000364890F8560900B99FE7344890F8560907
:1012E000324991F8371F401A401E684385B22F4893
:1012F00090F8370F604384B22BE02C4890F88709B0
:1013000000B98AE7294890F88709284991F8FF1E13
:10131000401A401E684385B2244890F8FF0E60438F
:1013200084B216E0214890F8880900B975E71F4893
:1013300090F888091D4991F8211F401A401E684302
:1013400085B21A4890F8210F604384B201E064E747
:1013500000BF00BF184800682044174908601448BF
:1013600090F8010200F0010008B100F025F91048E2
:1013700090F8010200F0020008B100F01DF90C48DD
:1013800090F8010200F0040008B100F015F90848D7
:1013900090F8010200F0080008B100F00DF90648CD
:1013A000006828440449086000BF36E7681D002033
:1013B000682D0020692F0020000200203EB518484B
:1013C00090F80A0F58BB164890F8070F022826D04D
:1013D000134890F8140F10BB114890F81A0F08B179
:1013E000032400E000240F48016800914168019146
:1013F000007A8DF808000C4820440188ADF80110EF
:1014000080788DF8030009496846FFF799FB064884
:101410002044BDF8011001809DF8031081703EBD8D
:10142000681D0020C8C90308452C0020D1C9030845
:101430002DE9F047074607F00F094FEA171AB9F1EF
:10144000000F3DDD0125002610E009EA050048B146
:1014500006EBC601264A8818A2F1A201FFF770FB2D
:10146000B04605E06806050E701CC6B2042EECDB23
:1014700000BFBAF1000F23DD012500241DE00AEAB8
:101480000500B0B1042101EB440101EBC101184A90
:101490008818A2F1A201FFF753FB052101EB4401DB
:1014A00001EBC101124A8818A2F1A201FFF748FB23
:1014B00005E06806050E601CC4B2042CDFDB00BF2B
:1014C0000B49A23901F18700FFF73AFB0849483977
:1014D00001F13600FFF734FB064890F8340F054958
:1014E00081F8350F002081F8340FBDE8F087000047
:1014F000653C0020681D002010B511F021FF144844
:1015000090F8EF0813490968084412490860002060
:101510000F4981F8290F15E00D4890F8291F00F6B2
:10152000F10000EBC10100F511600A680260496832
:101530004160FFF76DFE064890F8290F401C0449F2
:1015400081F8290F024890F8290F0628E4DB10BD26
:10155000681D00200002002010B511F001FF1448A2
:1015600090F82409134909680844124908600020CA
:101570000F4981F8290F15E00D4890F8291F00F652
:10158000261000EBC10100F6DB000A680260496822
:101590004160FFF73DFE064890F8290F401C0449C2
:1015A00081F8290F024890F8290F0628E4DB10BDC6
:1015B000681D00200002002010B5404890F81A0F66
:1015C00060B13E4890F8290F012807D03C48407888
:1015D0003C49096808443B49086010BD3948046823
:1015E0002BF0E2FA37480460344890F8F60E38B130
:1015F00035F050F8324840782044324908605AE0CB
:101600002F48807890B12E482B30407A00F00800A7
:1016100060B92A4890F8390F40B9284890F8070F68
:1016200020B9294926482B30FFF78AFA2448C07888
:1016300068B123482B30407A00F0830020492B31D9
:10164000487201F68941A1F54860FFF779FA1C4814
:10165000007920B11D49A1F61D40FFF771FA184825
:101660004079A0B119497E31A1F692402FF0ECFEED
:1016700013482B30C07E00F0800040B11048463047
:1016800013490A6802604A684260097A01720C488C
:10169000807928B10D491B31A1F62640FFF750FA99
:1016A0000748C07928B109491231A1F61440FFF763
:1016B00047FA34F0EFFF00BF8FE70000681D0020FD
:1016C000692F002000020020D1C90308C33B00207D
:1016D000C8C9030838B50546681E00B260490880CD
:1016E000002060490870604981F8030F81F8F30E0B
:1016F00002205E49087001205D4908701F205D4985
:10170000087047205849A1F84A0F1F205A4908730A
:10171000002006F0CFF936F045FA012036F0FAFC49
:1017200028F0D2F800BF002006F00AF80090002050
:1017300002F058FDBDF8000000B9F4E7BDF8001054
:10174000C8B20FF093FC04460E2C00D150E00C2CD4
:1017500013D1454890F8420F00F01000A8B1474857
:1017600090F89D0F00F0200018B1032005F0E8FF6D
:1017700002E0022005F0E4FFD5E734B9009814F048
:1017800039FD012006F096F9CDE7BDF8000000F420
:101790007F40B0F5807F23D1384890F89D0F00F04E
:1017A0002000E8B9BDF80000C0B2402817DABDF843
:1017B00000002D4981F81F0F084690F81F1F00F206
:1017C000214000EB410001882D48A0F8531E02F093
:1017D000A5FD28B12548007800B909E0A3E7A2E7F4
:1017E000009814F007FD27488079274908709AE788
:1017F00000BF1D48D0F8420F20F488701A49C1F884
:10180000420F032005F09CFF36F0CCF94320164927
:10181000A1F84A0FD1F8760F082200210AF05AFDEC
:10182000002010490870104981F8030F124908730D
:101830000E4908700E4908700E49087006F03AF912
:1018400042F210710E48A0F8531E0020064981F89C
:10185000130F4E200D490870002036F05BFC38BD98
:10186000920200209C020020681D002099020020A6
:101870009A0200209B0200200E4D0020683D0020AF
:10188000682D0020281800209D0200209E020020C4
:10189000002070472DE9F04106460C462EB92F482E
:1018A00090F8200400F00F0040B9002E53D02B48D0
:1018B00090F8200400F0F00000284CD02778002099
:1018C0002070264890F8200400F00F051DB9234829
:1018D00090F820040509012D06D0022D12D0032D09
:1018E0001FD0042D35D128E0607800F00F000528C6
:1018F00003DB1B492046FFF723F9607800F0F00076
:10190000607026E0657800206070742D04DD154954
:101910002046FFF715F903E0242D01DD502060700B
:1019200017E0607800F0F00500206070502D03DBB8
:101930000C492046FFF704F90BE0607800F0F00551
:1019400000206070002D03DD06492046FFF7F8F8FF
:1019500000BF00BF2770BDE8F0810000681D0020B7
:10196000DAC90308E3C9030810B504463048007813
:1019700030B920224F212F48FEF739FC06F0D7FA64
:101980002D4890F8420F00F01000002838D12F2C7D
:1019900003D13020FFF7E8FF30242E2C1AD126483F
:1019A00090F8000FA0B90120234981F8000F2048CA
:1019B000007828BB30201F4981F84D002E2081F887
:1019C0004E00002081F84F0002201949087010BD18
:1019D0000020FCE7184890F8000F88B1302C0FDB8E
:1019E000392C0DDC144890F8000F032801DD00208D
:1019F000EDE7114890F8000F401C0F4981F8000FE7
:101A00000B48007828B14E220A49491C481EFEF7AF
:101A1000DCFB084880F84E400020064981F84F0062
:101A200003480078401C0249087008460078CEE759
:101A30009D020020274D0020681D002010B50146A2
:101A40000A12CBB202F00F00141104EB840400EB75
:101A5000440000EBC00404EB00104FF6FF7404EAEE
:101A6000800203F00F001C1104EB840400EB44001F
:101A7000104480B210BD00002DE9FF4782460C469D
:101A800091461D46DDE90D780C9E134890F8E4035D
:101A9000012802D0022812D108E02B464A460FA1A5
:101AA00050468DE8D00134F085FE11E04B462246C9
:101AB00012A150468DE8E00134F07CFE08E04B4670
:101AC0002A4606A150468DE8D00134F073FE00BFCF
:101AD00000BFBDE8FF870000681D00202530327878
:101AE0002D253032782D3230253032782025303295
:101AF000783A253032783A25303278003230253045
:101B000032782D253032782D25303278202530322C
:101B1000783A253032783A25303278002DE9F0478E
:101B2000034600252846294606221CE09C5C992C89
:101B300016DC9C5C04F00F049D5C2D1105EB850503
:101B400004EB45044FF0640C4FF000098046A8FBFD
:101B50000C6A01FB0CA700FB0977A01947EBE471A5
:101B6000A2F1010422B2002AE0DABDE8F08730B524
:101B700002460C460023062113E0505C99280EDC37
:101B8000505C00F00F00555C2D1105EB850500EB56
:101B9000450003EBC30505EB031500EB8503481E69
:101BA00001B20029E9DA236098B230BD30B50024D3
:101BB0000F30002101E0401E491C102902DA05788F
:101BC000002DF8D009E005782D072A0E05782B099D
:101BD0001D1905701446401E491C1029F3DB30BD49
:101BE00030B50024002109E005782D072A0E05787C
:101BF0002B09151905701C46401C491C1029F3DBE4
:101C000030BD0146072005E04A1C125C02B103E02A
:101C1000421E10B20028F7DA00BF421C10B20028A2
:101C20000BDD421E4B1C9A5C0F2A04DA0122C2EB28
:101C3000400210B201E0420010B20A7802F08002C5
:101C40000AB1421C10B2704708B50146002000904E
:101C5000034800900098084400900098008808BD50
:101C6000006C004008B500220092044A0092009ADD
:101C700002440092009A116008BD0000006C004010
:101C800010B504461548B0F89D0F00F4007020BB55
:101C90004CB113491348B0F81F000880084600787B
:101CA00040F0800008700D4890F89D0F00F0010092
:101CB000C0F10800C0EBC00000EB40020949A039A8
:101CC0000948FEF782FA35F06DFF0448B0F89D0F21
:101CD00040F400710148A0F89D1F10BD683D002030
:101CE000E0010020E84C00203818002010B50F4813
:101CF00090F8FD0300F007041CB10C4890F8030FA6
:101D000008B1002010BD611EC8B20CF0BBFC611E02
:101D1000C8B205212DF06CFB00200549087005496B
:101D20000870054908800120ECE70000681D0020CC
:101D30007D0100207C0100208001002070B5B348A7
:101D400090F8FD0300F007051DB1B04890F8030FAF
:101D500008B1002070BDE7E0691EC8B202F038FA91
:101D600030B1691EC8B22AF01BF80446401C08B9FD
:101D70000020EFE7A6480088B8BB0020A5490870FE
:101D8000A5490870A5490870012C10D0022C12D06A
:101D9000062C02D0462C16D111E0691EC8B21121C2
:101DA0002DF026FB02209E4908700020D2E7022079
:101DB0009B49087009E000209949087005E001205E
:101DC0009749087001E00020C4E700BF8F4890F8F1
:101DD000FD0300F007009249097801F00F0140EA85
:101DE00001118A4880F8FD1330E0FFE78C48007845
:101DF00002282BD1042C1FD18648007880F00300E4
:101E0000844908700846007848B986488078532885
:101E100005D18448008840F2012188420BD0691E18
:101E2000C8B20CF02FFC5520784981F8030F002030
:101E3000774908808EE778E07548B0F900000128FE
:101E400004DD744800786040724908707248007878
:101E500038B16F48B0F900006F490978401A01287D
:101E600004DC70496A4AB2F900208C54302C01DB42
:101E7000392C01DD2E2C0AD16848007818B9644845
:101E800000786649087062480078634908706048C5
:101E90000088401C00B25E49088061480078012833
:101EA00019D1084600880A2815D15C48007818B96D
:101EB0000846007859490870554800785649087016
:101EC0002E215348B0F900200088401C00B2504B2E
:101ED0001880544881544E48B0F900001E2801DA99
:101EE0000A2C03D100204A49088033E70D2C1BD16E
:101EF0004B48007818B94B480078022807D048486A
:101F00000078012804D147480078462800D10CE029
:101F1000691EC8B20CF0B6FB55203C4981F8030F8E
:101F200000203B49088015E716E700BF002005F0B8
:101F3000C1FD691EC8B20CF0A5FB00203A4908702B
:101F40003349088000260025344800783249097852
:101F5000884259DA3148047832E04EB93148005BA2
:101F600043F23001884201D0012000E00020064603
:101F700026B300212D48A0F8551E2A48055D2E2DB8
:101F800006D12348008818B901202149088008E0BB
:101F90001F48008828B11E480088401C00B21C4918
:101FA00008801B48B0F90000042807DC1F48A0F88F
:101FB000535E0146B1F8530E13F048FD601C04B2A5
:101FC000154800788442C8DD0020114908800120AE
:101FD00000F0CCF90D48B0F84A0F432804D00B4864
:101FE000B0F84A0F45280FD100211048A0F8551E1F
:101FF00040F2D471A0F8531E0120044981F8040F67
:1020000021F0AEFE0120A5E60020A3E6681D002019
:10201000800100207E0100207D0100207C01002045
:10202000820100200C170020A0020020682D002053
:1020300070B5844890F8FF0300F00705814890F8D8
:10204000030F90B97F48B0F84A0F42280DD07D4861
:10205000B0F84A0F462808D07A48B0F84A0F472807
:1020600005D1794800781F2801D0002070BD0026D6
:1020700079E05DB1691EC8B202F0AAF830B1691EFC
:10208000C8B229F08DFE0446401C08B90020EDE7D7
:10209000E4B26E4801680068401C6C4A10606C48ED
:1020A000445410460068FE2803DB002011460860F7
:1020B000DCE70A2C11D006DC022C09D0032C31D02D
:1020C000092C40D12DE00D2C2AD0242C3BD100E04E
:1020D00000BF00205D490860C8E75C480068801EBA
:1020E0005B49085C0D280AD158480068801E574992
:1020F000086000205649554A126888540EE053483B
:102100000068401E51490860002051494F4A12683A
:1021100088544E48006808B90020A7E7012621E04E
:1021200000BF00BF49480068401E484908600020C1
:102130004749464A126888544448006808B9002054
:1021400094E701260EE0202C01DB7E2C09DD3F48C0
:102150000068401E3D49086000203D493B4A126826
:10216000885400BF00BF002E83D0002005F0A2FCE1
:102170000020384908703348B0F84A0F47281CD16E
:1021800031480078C8B92F4991F82B1F01F004019C
:1021900009B1062100E0042108462D4916F05EFB36
:1021A00005F0D6FE05F0B2FE0822042128480AF008
:1021B00091F800202549086058E72448007826490E
:1021C00008700020214908602449234A1278891A9E
:1021D000481E21490A781E49FDF7F7FF01201949D9
:1021E00081F8050F02F0A2FF1648B0F84A0F432805
:1021F0001CD01448B0F84A0F452817D000211848C1
:10220000A0F8531E00200F4981F8130F0846B0F8BC
:102210004A0F442804D113480078134908700FE08E
:10222000084890F8C7031049087009E000210C48DD
:10223000A0F8551E42F21071A0F8531E21F090FD37
:10224000012013E7681D00209B020020840100206C
:102250002A170020A00200209D020020774D0020B8
:10226000682D0020AB0200209402002030B5024609
:102270000B460020591E0EE0C40004EB4004555CE0
:1022800004EB2510C40004EB4004555C05F00F0579
:1022900060194C1E21B20029EEDA30BD10B504469B
:1022A00011210948FDF7AAFF074854F8011F0160F2
:1022B00061684160FFF77AFC03480168216040686B
:1022C0006060641E10BD0000041D0020D0F80220D4
:1022D000C0F80120C288A0F80520017AC17100224F
:1022E0000272704710B5044611210948FDF786FFB8
:1022F000074854F8011F016061684160FFF770FCF6
:1023000003480168216040686060641E10BD0000E1
:10231000041D0020072105E04A1E431C9B5C421C53
:102320005354491E0029F7DC002242707047000018
:1023300008210C4A1160012803D10A210A4A1180A0
:102340000EE0022803D12821074A118008E0032863
:1023500003D15021044A118002E00A21024A11806F
:1023600070470000141401406E00002000B50346C1
:10237000D8B2FFF7DDFF002000BD00002DE9FC5FB3
:102380008346894616461C46082E00D90826002C8E
:102390003ED02048D0F800A04FF00008601E04B2E4
:1023A00029E0A5B205EB080085B26D1005FB09A078
:1023B00018490860314668462AF00CFB32466946E7
:1023C000584606F023FE0746002F03DA2CB2601EA3
:1023D00004B210E037B10FFA85F808F101000FFAE6
:1023E00080F808E00B480068801B0A490860681CF8
:1023F00080B2BDE8FC9FA045D3DD06480068801B85
:1024000004490860002F03DD08460068484408605E
:102410000020EEE7000200202DE9F84381460F4638
:1024200090461C46B9F13C0F74D009DCB9F1340F69
:1024300011D0B9F1350F0DD0B9F1360F69D10DE0DA
:10244000B9F1440F0CD0B9F1450F7DD0B9F1460F69
:102450007BD160E07EE00020BDE8F8830020FBE750
:102460003E48B0F8420F00F4006000284ED1F8B2A8
:102470008DF80000022608F00100A0B3384890F85B
:10248000EE0F18B930208DF8010033E02CB1202C6C
:1024900003DCE0B28DF80200032631208DF8010044
:1024A00014223146684629F075F9002509E005EB4C
:1024B00045112C4A881804221F2129F06BF9681C49
:1024C000C5B2082D05DA05EB45102649085C002841
:1024D000EDD100208DF8000004220121684629F08A
:1024E00059F90120B8E7FFE708F0020010B13220E7
:1024F0008DF801002CB1202C03DCE0B28DF8020035
:10250000032614223146684629F044F90120A3E746
:1025100000E01AE01EE03FB13846FDF79CFEC6B26F
:10252000202E02DD202600E000260C48B0F8420FE5
:1025300000F4006028B908F0FF023146384629F05F
:1025400029F9012088E7FFE704E0494606A032F0B8
:102550005BFB00BF00BF00207EE70000681D00207D
:10256000682D0020563D0020436F6D6D616E642024
:1025700025640A0010B588B0044620461D2C7DD085
:102580000CDCA0F10F000D2879D2DFE800F03178E3
:1025900078302B787878353947433F00502841D040
:1025A00006DC332830D03D2809D03F2867D10DE024
:1025B000512878D0522875D05328F7D1D0E011F0A7
:1025C0003DF800908248008808B010BD8148B0F8FE
:1025D000420F00F4006020B980220021084629F053
:1025E000D9F8F1E013F00AFD28F0B8FEECE0EBE0DA
:1025F00013F0F2FC0020E7E700200CF061F8E3E0C4
:1026000001200CF05DF8DFE00020DDE70320FFF79C
:102610008FFED9E00220FFF78BFED5E00120FFF707
:1026200087FED1E001A835F0FAFF0798B0F5FA6F00
:1026300002DA0020079003E00798A0F5FA600790FF
:102640000A21049890FBF1F201FB12000A2204997E
:1026500091FBF2F100EB01105F4908700A21069826
:1026600090FBF1F201FB12000A22069991FBF2F1B4
:1026700000EB0110584948700A2101E09CE09EE0FF
:10268000079890FBF1F201FB12000A22079991FBD7
:10269000F2F100EB0110504988700598C8700120D4
:1026A00092E700E02EE001A835F0B9FF0A21039877
:1026B00090FBF1F201FB12000A22039991FBF2F167
:1026C00000EB0110454908700A21029890FBF1F2D5
:1026D00001FB12000A22029991FBF2F100EB0110BA
:1026E0003E4948700A21019890FBF1F201FB12006B
:1026F0000A22019991FBF2F100EB01103749887031
:10270000002061E701A835F08AFF3348807800F0A7
:102710000F0031498978091101EB810100EB41007B
:1027200000F5FA6007902C48407800F00F002A4925
:102730004978091101EB810100EB41000690264820
:10274000007800F00F0024490978091101EB81019C
:1027500000EB4100049001A835F08DFF002033E725
:1027600001A835F05CFF1D48007800F00F001B4900
:102770000978091101EB810100EB41000390174832
:10278000407800F00F0015494978091101EB8101EB
:1027900000EB410002901148807800F00F000F49D3
:1027A0008978091101EB810100EB4100019001A83A
:1027B00035F061FF002007E702F0AAFE04E721469A
:1027C00007A032F021FA00BF00BF0020FCE60000A5
:1027D000DE020020681D0020000000200400002010
:1027E000436F6D6D616E645F312025640A000000E7
:1027F0002DE9F84F8046894615461E46DDF828A08B
:10280000314800680090CB46A8F10104B8F1030FED
:1028100057DCBAF1000F02D00020AAF80000D5B9A9
:1028200009E02EB1284801680098081AB04202D980
:102830000020BDE8F88F04EB8410244901EB001060
:10284000C06804EB8411214A02EB011189688842B7
:10285000E7D00120EDE7681C68B9002004EB841183
:102860001A4A02EB0111886004EB841102EB01119A
:10287000C8600120DDE7B9F1000F11D104EB84102D
:10288000124901EB0010C06804EB84110F4A02EBFF
:1028900001118968884201D00120CAE70020C8E7F9
:1028A00000270AE032465946404631F0F7FC08B9A5
:1028B00038B2BEE70BF1010B7F1CAF42F2DB2846BA
:1028C000B7E70020B5E70000DC0000204805002045
:1028D0002DE9F04705460E4617469946B046032DAA
:1028E0000EDC002407E098F80010284631F076FE50
:1028F00008F10108641CBC42F5DB0120BDE8F0874B
:102900000020FBE770B5002500BF0E48806800F48A
:1029100000544FF47A7036F0F1F80A48806800F4F9
:102920000056B44204D16D1C1CB1022D01DD02E041
:102930000025322DE9DB00BF0CB9012070BD00205D
:10294000FCE700000010014030B5024600200FE017
:102950000B7801248440234023B13124431D064DCC
:10296000EC5403E03024431D034DEC54431C18B2D7
:102970000828EDDB30BD0000914D002000BFFEE7D0
:102980000146CAB20B1243EA0220704710B5032079
:102990000EF07AF908B1012010BD064890F84F01F9
:1029A00020F01401034880F84F11F52180F84E11F2
:1029B0000020F1E7E22C00202DE9F84F81468846FF
:1029C000404610F07FFD002581E020214448FDF7BE
:1029D00015FC4220424908700E204870414800789A
:1029E00028448870B8F1060F02D0B8F1050F07D15E
:1029F0003B48C01C3C490A6802608988818006E027
:102A00003748C01C39490A68026089888180344887
:102A1000093037490A6802608988818002240027CA
:102A200004E02F48005D3844C7B2641C2C4840784D
:102A3000401CA042F5DC2A484078401C28490F542D
:102A400002200BF01FFE0023102225490320FFF770
:102A50003FFF4FF0000A00260EE000200090C6F174
:102A6000130002B21E48811932230320FFF7C0FE73
:102A7000304406B20AF1010ABAF10A0F01DA132E44
:102A8000EBDB0224002704E01548005D3844C7B2A0
:102A9000641C122CF8DB12480078422809D1104837
:102AA0004078112805D10E48807CB84201D1132E00
:102AB00004DA00270020C9F800000DE0012709EB27
:102AC000051010220649891CFDF77FFB6D1C094883
:102AD00000788542FFF679AF00BF3846BDE8F88F31
:102AE000471D00207902002096DB030890DB0308D5
:102AF0009CDB03087A0200202DE9F84380460E464D
:102B00000025304610F0DEFC002464E0202135482A
:102B1000FDF774FB4220334908701E20487032488C
:102B2000007820448870062E01D0052E07D12D484C
:102B3000C01C2E490A6802608988818006E0294805
:102B4000C01C2B490A6802608988818025480930A9
:102B500028490A6802608988818008EB04111022E4
:102B6000801DFDF732FB0227002504E01D48C05DF3
:102B70002844C5B27F1C1B484078401CB842F5DC95
:102B800018484078401C17490D5402200BF07AFD7C
:102B90000023202213490320FFF79AFE0A2516E09E
:102BA0000020322303220F4900901046FFF720FE39
:102BB0000C480078422808D10A484078012804D1FE
:102BC00008488078592800D103E0681EC5B2002D5E
:102BD000E6D100BF641C08480078844296DB284692
:102BE000BDE8F883471D00207902002096DB03082A
:102BF00090DB03089CDB03087A02002010B500205C
:102C00000349086003202CF08DFE012010BD000058
:102C1000780100202DE9F04106460C4600271FE010
:102C200002E0052035F06AFF104800680028F8D05F
:102C300000200E490860402C01DD402500E02546BB
:102C4000F0192A46C02132F077FE294601202CF0E7
:102C500093FE01202CF0BEFE601BC4B2781987B22F
:102C6000002CDDDC0120BDE8F081000074010020B3
:102C700008B50020009022E19748008800F00F007E
:102C8000964908700846007800287CD1944800686E
:102C9000944908800846008800F030009249088076
:102CA0009048008800F440508E4908808C4909689B
:102CB0004BF6BF7201EA020080F4005080F0200061
:102CC00040F4004141F08001854A1160824800884B
:102CD00000F0100090BB1046006848F60F710840E5
:102CE0001146086011F07EF87D4909684BF6BF7205
:102CF00001EA02007B49098801F4805109B180F49E
:102D000080507849098801F4005109B180F40050DD
:102D10007549098801F0100109B180F0100072496D
:102D2000098801F0200109B180F0200081B241F44E
:102D3000004141F080016A4A116008BDFFE7684820
:102D4000006880B20090BDF8000000F40060B0B3ED
:102D500063480068C0F30E0048F68F710840604970
:102D600008602DF023FB5E4909684BF6BF7201EA4B
:102D700002005C49098801F4805109B180F4805057
:102D80005849098800E056E001F4005109B180F487
:102D900000505549098801F0100109B180F0100078
:102DA0005149098801F0200109B180F0200081B269
:102DB00041F4004141F08001494A1160BDE7FFE75D
:102DC000BDF8000000F40040002878D044480068B6
:102DD000C0F30E0048F68F7108404149086015F0B5
:102DE00015FD3F4909684BF6BF7201EA02003D49F3
:102DF000098801F4805109B180F48050394909886B
:102E000001F4005109B180F400503749098801F0FC
:102E1000100109B180F010003349098801F0200148
:102E200009B180F0200081B241F4004141F08001FD
:102E30002B4A116081E7294800782C4901EB80007A
:102E4000D0F8000C80B20090BDF8000000F4004003
:102E5000C0B12248007801EB8000D0F8000CC0F32C
:102E60000E0048F68F7108401C4909781F4A02EB92
:102E70008101C1F8000C19490978491E1C4A52F811
:102E800021008047BDF8000000F08000B8B1134871
:102E90000078164901EB8000D0F8000C48F60F715D
:102EA00008400E490978114A02EB8101C1F8000C73
:102EB0000A490978491E0F4A52F8210080470848FC
:102EC0004430006880B20449088000F400400028C3
:102ED0007FF4D2AE00BF30E744040020200500207C
:102EE000005C004034050020360500200050004002
:102EF0006C040020500400202DE9F04190B00546FC
:102F0000FE4801680A9141680B91007A8DF8300003
:102F1000FA481B300168079141680891007A8DF8E2
:102F20002400F6485A300168049141680591007AFE
:102F30008DF81800F248B0F8667FB0F8508F002680
:102F40009DBBF04801680D9141680E91007A8DF8A3
:102F50003C00EC480168019141680291007A8DF8CB
:102F60000C00E64836300168019141680291007A10
:102F70008DF80C00E44901A814F000FFE348407804
:102F800000F0080028B99DF8040080F080008DF85A
:102F90000400DB4890F81E0F002805D09DF80400BF
:102FA00080F080008DF80400D0E0FFE7022DFBD117
:102FB000D44801680D9141680E91007A8DF83C006B
:102FC000D0480168019141680291007A8DF80C00A7
:102FD000CA4836300168019141680291007A8DF843
:102FE0000C0000248EE0C4EB0411C94800EB410042
:102FF000008841F2883188426DDDC4EB0411C44879
:1030000000EB4100008842F21071884214DDC4EBED
:103010000411BF4800EB41000088A0F51C50113896
:10302000B749A1F8660F29F035FBB548B0F8740F21
:10303000B349A1F8500F0BE0C4EB0411B44800EB06
:1030400041000088A0F598508938AD49A1F8500F8B
:1030500028F0E4FEAD48407800F0400020B9AB48CD
:10306000407800F08000C0B1A848407800F04000EF
:1030700030B1A6482F3890F8220000F0400060B927
:10308000A248407800F0800030B1A0482F3890F876
:10309000220000F0800000B932E0C4EB04119C482B
:1030A00000EB410050F8151F0D9141680E91007A18
:1030B0008DF83C0006F0020038B19DF8340080F035
:1030C00080008DF8340026F002060DA98B480930E7
:1030D000FDF736FD13E0C4EB04118D4800EB410011
:1030E000008840F22F11884208D0C4EB04118848B0
:1030F00000EB41000088B0F5977F00D100E000BFF1
:10310000601CC4B28348D0F88002A0423FF76BAF86
:10311000814901A814F032FE7849093101A80AF06A
:1031200051FD7A48407800F0080028B99DF8040065
:1031300080F080008DF80400714890F81E0F28B1CF
:103140009DF8040080F080008DF804000024C0E1A8
:10315000C4EB04116E4800EB4100008841F2883155
:1031600088427DDD26F00106C4EB0411684800EBBF
:103170004100008842F21071884216DD46F00106D7
:10318000C4EB0411624800EB41000088A0F51C501C
:1031900011385B49A1F8660F29F07CFA5848B0F85D
:1031A000740F5749A1F8500F0BE0C4EB04115848B5
:1031B00000EB41000088A0F5985089385049A1F8EB
:1031C000500F28F02BFE042D31D14C480A99016094
:1031D0000B9941609DF8301001724C48407800F026
:1031E000400038B94948407800F0800010B900F03C
:1031F000A5FB3FE14548407800F0400030B143482E
:103200002F3890F8220000F0400068B93F4840781D
:1032100000F080000028ECD03C482F3890F82200C5
:1032200000F080000028E4D000F088FB22E137485D
:10323000407800F0400020B93448407800F0800029
:10324000D0B13248407800F0400030B12F482F38DC
:1032500090F8220000F0400070B92C48407800E05F
:10326000AEE000F0800030B128482F3890F82200FE
:1032700000F0800000B92AE1012D5ED1C4EB0411F9
:10328000234800EB410100F6F230CA6802600A6987
:103290004260097D017206F0020038B19DF83400E9
:1032A00080F080008DF8340026F00206C4EB041292
:1032B000174800EB4200C11C10481B3014F05EFDA3
:1032C000C4EB0412124800EB420000F115010B4858
:1032D0001B302EF0B9F8094800F11B010A680260A2
:1032E0004A684260097A0172C4EB0411084800EB95
:1032F000410100F6314051F8032F0FE0C33B00209D
:10330000681D0020C8C90308FEC903089A2E0020C2
:10331000EC2F0020682D002010CA030802604A68C4
:103320004260097A0172A0F6B56090F8B50E80F09F
:103330008001814880F8B51E9CE0C4EB04117F48F1
:1033400000EB410050F8151F0D9141680E91007A75
:103350008DF83C0006F0020038B19DF8340080F092
:1033600080008DF8340026F0020601A90DA814F0A3
:1033700005FD73490DA80AF025FC00210DA82AF0CF
:10338000D5FC0DA90120FEF785FA6E480D99016064
:103390000E9941609DF83C1001721B380D99016037
:1033A0000E9941609DF83C100172C4EB0412634910
:1033B00001EB420101F115000DA9FDF7C1FB59E038
:1033C000C4EB04115D4800EB41000088B0F5FA7FC2
:1033D0001FDDC4EB0411594800EB41000088B0F533
:1033E000FC7F16DC012D14D1C4EB0411534800EB13
:1033F00041015448CA6802600A694260097D01724D
:103400001B3850490A6802604A684260097A0172B2
:1034100030E0C4EB0411494800EB41000088B0F5EE
:10342000FC7F0BDDC4EB0411444800EB4100008835
:10343000B0F5FE7F02DC012D00D148E0C4EB0411A1
:103440003E4800EB41000088B0F5977F02D1042D83
:1034500000D03CE03B483C490A6802604A68426050
:10346000097A01721B3838490A6802604A6842606A
:10347000097A01721DB9354890F81E0F40B13148E4
:103480003F3031490A6802604A684260097A017235
:10349000042D1BD02E4890F820102C48B0F8CC07F3
:1034A000814206DA2A4890F820002849A1F8520FF4
:1034B00003E000202549A1F8520FFDF72FFD06F08B
:1034C000010008B1FDF744FEFDF788FC00BF601C59
:1034D000C4B21948D0F88002A0423FF739AE1B4869
:1034E00090F81E0F38B118480168019141680291A7
:1034F000007A8DF80C0013481B380A9901600B996B
:1035000041609DF8301001721B30079901600899E5
:1035100041609DF8241001723F30049901600599C3
:1035200041609DF8181001720848A0F8667FA0F865
:10353000508F10B0BDE8F081682D0020EC2F0020E6
:1035400010CA0308DE3B0020C8C90308681D00201C
:103550006B2E00202DE9F04186B00446002700259F
:103560001CB9EE490020FEF795F9EC486238EB49AA
:103570000A6842674A688267097A80F87C10A0F579
:10358000F45090F8EC0800287ED0E54890F80E0F33
:10359000002879D100BF0020E14981F8320F92E183
:1035A00029F0CEFADF48007C00F00800E8B1022DD7
:1035B00019D1DA48873803990160049941609DF870
:1035C00014100172D64890F8320F00EBC000D349B6
:1035D0001B310144D148873802680A6042684A605A
:1035E000007A087214E0012566E1022D00D163E142
:1035F000CB4890F8320F00EBC000C8491B310144A2
:10360000C64887380A6802604A684260097A0172CF
:10361000C2487538C4490A6802604A684260097A3B
:103620000172123802F0FAFE00287CD0BB482D3817
:10363000BD490A6802604A684260097A0172B94964
:10364000B1F80D20A0F80120C97BC170B548007CFD
:1036500000F0010060BBB1487538A0F112010A68A2
:1036600002604A684260097A01720421A0F66D6026
:1036700080F8B51E00F6B56100F66D6014F07EFBB3
:103680000021A648753800E03BE12AF04FFBA34932
:1036900075390120FEF7FEF8A14890F8320F042892
:1036A00055DA9E49753901F18700FDF749FA4EE078
:1036B000032C01D0022C4AD198487538A0F1120190
:1036C0000A6802604A684260097A017248304078AC
:1036D000992813D191482D38807899280ED18F4898
:1036E0002D38C078992809D18C486C388E490A68E1
:1036F00002604A684260097A017228E087486C38A3
:10370000A0F11B010A6802604A684260097A0172EE
:1037100086493F30FDF714FA0421854880F8B51E2C
:1037200000F6B56100E017E000F676600AF04AFAAC
:103730007A486C382AF092FB78496C39A1F109007B
:103740002DF082FE7549753903A82DF07DFE0CB170
:10375000042C01D1FDF7D0FE022C7CD17148007CF5
:1037600000F00200002874D06C48753802F056FE54
:1037700028B96C48007C00F004000028F3D07FB921
:10378000022D06D16B49D1F87C0103A918F0ACFADF
:1037900005E06849D1F87C01604918F0A5FA0127D5
:1037A0001B2004F04FFE5F48007C00F0100018B3AF
:1037B0005C496148FCF763FD5F48FCF74CFD064639
:1037C00020223046761C5C490A545A4AD2F86412C8
:1037D000594A9019FCF753FD5248007C00F0010053
:1037E00028B94E498739544818F07EFA04E04B490D
:1037F0006C39514818F078FA202240214E48FCF7E5
:10380000F6FC49480168009141680191007A8DF801
:1038100008004448B0F80D00ADF801004148FCF73D
:103820001AFD804642463F494348FCF7CEFC022041
:103830008DF800006946404810300CF0ADFF25209F
:103840003D49487400208874344975393A4818F065
:103850004BFA30E0FFE7032C2DD13248007C00F01A
:103860000100F8B12F48007C00F00200D0B12B48D5
:10387000873802F0D3FD20B92A48007C00F004000C
:1038800080B126497539274818F02EFA2548007C62
:1038900000F0100030B12749D1F864021F496C399B
:1038A00018F022FA1D4875381F490A6802604A68F4
:1038B0004260097A017200BF194890F8320F401C2B
:1038C000174981F8320F164890F8321F90F8EC082B
:1038D0008142FFF665AE012D11D110491231002051
:1038E000FDF7D8FF0D486238416F0391816F049155
:1038F00090F87C008DF81400022500274BE600BFED
:1039000000BF074890F8110F20B904491231002078
:10391000FDF7C0FF06B0BDE8F08100004A3C002082
:10392000681D0020712F0020C8C90308F5C90308CD
:10393000682D002070B80308914D002010B58AB0A2
:103940005E48407800F00400002853D15C480168CC
:10395000019141680291007A8DF80C00594901A843
:1039600014F00CFA002442E054482F3890F8230059
:103970000121A1400840C0B304EBC40050496C31A0
:1039800008440168079141680891007A8DF8240085
:1039900001A907A814F0F2F94B4907A80AF012F997
:1039A000002107A82AF0C2F907A90120FDF772FF3C
:1039B0004248407800F0080028B99DF81C0080F0CB
:1039C00080008DF81C00414890F81E0F28B19DF82A
:1039D0001C0080F080008DF81C0004EBC401384A04
:1039E0006C32881807A9FDF7ABF8601CC4B2082C2C
:1039F000BADB60E032489138416E0791816E0891E0
:103A000090F86C008DF8240007A802F007FD00284C
:103A100051D000244DE029482F3890F8230001218F
:103A2000A1400840002842D004EBC401244A6C3273
:103A3000881802F0F3FCD0B304EBC401204A6C32C6
:103A4000881802F0EBFC90B304EBC4001C496C3105
:103A500008440168049141680591007A8DF81800C6
:103A6000194904A814F08AF907A904A80AF0AAF8C9
:103A70001349363904A814F081F9134904A80AF04F
:103A8000A1F8002104A82AF051F99DF8100000F0D7
:103A9000FC008DF8100004A90120FDF7FBFE04EBEB
:103AA000C401074A6C32881804A9FDF749F8601C64
:103AB000C4B2082CAFDB0AB010BD00009A2E002063
:103AC000F93B0020FEC9030810CA0308681D002046
:103AD0000246914201DD00207047531A03EBD37078
:103AE000C0F34700F8E700002DE9FC5F664F674828
:103AF000007858B94FF0050800206449A1F8050086
:103B00001820C8710846B0F808A004E05F48B0F873
:103B100005A04FF00A084FF0000901E008F1010884
:103B200017F808000028F9D108F101085748407833
:103B3000C0000C2190FBF1F0554908805348C07833
:103B400088800C20C880182008814881002400202B
:103B500001904E48B0F80500002861D00020488050
:103B60004A48B0F8055000264DE0A146785DA8B956
:103B7000474A5189474A10192022FCF738FB44482C
:103B80004089044400222046641C42490A546D1CAA
:103B90003F484088401C3E49488034E0785D012819
:103BA00001D1AD1C2FE000260AE039484089B0421F
:103BB00005DD7A5D2046641C36490A54761C6D1C6E
:103BC00032480089A84202DD785D0028EDD16D1CE5
:103BD000F0B2009005E020222046641C2D490A54D2
:103BE000761C2B484089B042F5DC2146641C294AEA
:103BF0000098505426484088401C25494880019828
:103C0000401CC0B2019021480089A842ADDC204888
:103C100040881F494989491C48431D49C86003E041
:103C200000201B494880C86025464FF000091EE06F
:103C300009EB0806B85D98B9761C4FF0000B06E05A
:103C400000222046641C13490A540BF1010BB85D95
:103C5000584502DDB4F5005FF2D309F1020906E030
:103C6000BA5D2046641C0B490A5409F10109D1458B
:103C700002DAB4F5005FDBD30548C068611B084475
:103C80000349C860BDE8FC9F00F0036400F00364D2
:103C90003C7C00204C7C002010B5464890F8E103A5
:103CA00030B1012820D002283AD0032871D153E046
:103CB000404890F8000F30B1012808D002280AD0FF
:103CC00003280DD108E03C48FEF724FB0AE03A48FF
:103CD000FEF708FB06E005E03748FEF7DFFA01E0F3
:103CE000002010BD00BF56E0324890F8000F30B100
:103CF000012805D002280BD003280DD104E00DE0E7
:103D00002D48FEF7CBFA09E02B48FEF7C7FA00BFB3
:103D10002948FEF7DBFA01E00020E2E700BF3AE0C5
:103D2000244890F8000F30B1012808D002280AD0AA
:103D300003280DD10BE02048FEF7D4FA00BF1E483F
:103D4000FEF7E8FA06E01C48FEF7CCFA02E001E0D4
:103D50000020C6E700BF1EE0164890F8000F30B103
:103D6000012808D0022807D003280DD108E0124806
:103D7000FEF7B8FA0AE009E00F48FEF78FFA05E00F
:103D80000D48FEF7A3FA01E00020AAE700BF02E019
:103D9000FFE70020A5E700BF084890F8910E00F06B
:103DA000F801064880F8911E0020024981F8000FB2
:103DB000012096E7681D0020F93B0020682D0020B7
:103DC00010B5124890F8000F30B1012808D0022831
:103DD0000AD003280DD108E00D48FEF79BFA0AE04F
:103DE0000B48FEF77FFA06E005E00948FEF756FAB1
:103DF00001E0002010BD00BF0221064880F8911E9E
:103E00000020024981F8000F0120F3E7681D00201F
:103E1000F93B0020682D002070B50446257805F098
:103E20000F0020B1012806D002280CD107E020465F
:103E3000FEF758FA00BF2046FEF754FA00BF2046AE
:103E4000FEF750FA00BF00BF257070BD0EB52948BF
:103E500090F94E01002802DA4FF0FF300EBD00202D
:103E60002AF03AF82348D0F842010A21B0FBF1F2D7
:103E700001FB12011F4880F8491102200FF0E8FEF3
:103E800003200FF0E5FE02221A499031684633F014
:103E9000D2FC19496846FCF753FE022269461548D0
:103EA00090300AF0D7FB04200FF0D2FEFF21134818
:103EB00080F8A41F01200FF0CBFE0F210D48CE305B
:103EC00029F0D7FF01460B4880F8DD10042100F5EA
:103ED0008F70FEF711FE10B96FF00800BEE70521E4
:103EE0000748FEF709FE10B90120FEF73FFA01204E
:103EF000B4E70000E22C0020D1C90308681D0020AF
:103F0000002E00202DE9F04706460C4615461F46B8
:103F1000681E00F00F010120884000F0FF0801201A
:103F2000304908703048007848B9207800EA080025
:103F300008B1012000E00020401C2B4908702A48ED
:103F40000078022802DD0120274908702648007801
:103F5000022808D187F079002449C871207840EA06
:103F60000800207007E087F06E002049C8712078B3
:103F700020EA080020701D48C079792807D11C4824
:103F8000D0F84C151948401DFCF779F906E018489F
:103F9000D0F850151548401DFCF771F9154890F8F8
:103FA0009F1F00231A460D202BF040FD104901EB06
:103FB00086010868FF22002108F08CF905F08000D6
:103FC00068B10B4901EB86010868FCF744F98146AA
:103FD00005F00F000123FF22494608F0FFFCBDE871
:103FE000F08700009E0200209C020020914D0020DE
:103FF00070B80308683D002010B500F007F80248CB
:1040000090F8030F10BD0000681D002010B511F0DE
:10401000B3FC002855D00FF077FB0446412C3DDD62
:10402000482C13DA2848A0F84A4F09E00FF06CFB3F
:104030000446412C04DD482C02DA2348A0F84A4FFC
:104040002148B0F84A0F4228F0D03AE0482C0AD173
:104050001D4890F8FC0E00B300201B4981F8FC0EAF
:10406000A1F84E0F2DE0184890F8FC0EA04228D081
:10407000154880F8FC4EA4F148001349A1F84E0FF2
:104080000846B0F84E1FB0F82D05814219DD00201A
:104090000D49A1F84E0F81F8FC0E12E00A4890F885
:1040A000C103A0420DD1084890F8190F462808D046
:1040B000054890F82D0F20B91B20034981F8030F04
:1040C00010BD00BFFCE70000681D00207FB5002187
:1040D0006846FEF771FC0546CDB100240BE01DF8E3
:1040E000041004FB04F00A300A4A105C41400DF849
:1040F0000410601C04B2042CF1DB009E0648D0F8CA
:104100004201B04201D1012000E000200546E8B2A2
:1041100004B070BDC7DB0308E22C00202A4A92F8E5
:10412000022402F00F0100294CD097282ED008DC81
:1041300015280FD0812813D0822817D0852837D191
:104140001EE09A2828D0CF282CD0E1282CD0F8289F
:104150002ED12BE0012901D15D2000E0402030E08C
:10416000022901D17D2000E07E202AE0012901D131
:104170007B2004E0062901D15D2000E0602020E0E2
:10418000062901D17B2000E040201AE0062901D158
:10419000602000E07C2014E0022901D15D2000E0D5
:1041A0005E200EE024200CE07E200AE05B2008E088
:1041B0007F2805DDB02803DA00F07F02034B985C0E
:1041C00000BF00BF70470000681D00205EE10308CB
:1041D00010B50446611CC8B20022114630F05EF8EA
:1041E00010BD0000F0B587B0044614B9474890F8F8
:1041F000034FFF2C0CD10020FEF7B8F8434890F88D
:10420000030FFF287FD10020404981F8030F7AE097
:104210003F480078A0420DD1002C74D03D48006882
:10422000002870D14FF4FA703A4908600120FEF777
:104230009DF868E0022544B935480078002860D030
:104240000021084633F0D6FD5BE0AA1CD1B2E8B2EB
:1042500033F0D0FD3049D1F8EC02FBF7FCFFC7B2D8
:1042600039461320FFF734FC401CC6B2EAB22A4993
:10427000D1F8EC02314633F0A4FD002C1CDD642C97
:104280001ADC04F1D201244A02EB81010868FBF731
:10429000E2FFC7B239461320FFF71AFC401CC6B232
:1042A000691CCAB204F1D2011B4B03EB81010868FF
:1042B000314633F086FD1DE0152101A8FBF79EFF76
:1042C0001549D1F8EC02FBF7C6FF06461248D0F8B4
:1042D000EC12324601A8FBF778FF214601A831F025
:1042E000D4FC00208DF81700681CC2B2092101A877
:1042F00033F067FD4FF4FA70064908600120FEF7BD
:1043000035F80348047007B0F0BD0000681D0020B8
:1043100078020020E400002070B8030870B5FE4861
:1043200090F81F5F90F8C103A84206D14FF4FA61DC
:10433000FA48A0F8531E002070BDF748B0F84A0FA5
:1043400000F47F40B0F5706F03D0F34890F8030F8E
:1043500008B10120F0E7F248007858B10021EF4899
:1043600080F8911E0822EF4900F692602CF0E6FFDB
:104370000FF0FCF8284616F07BFE08B10120DBE7C1
:10438000E748007848B1E8480078172805D1E748A1
:104390000078022801D1062412E0E34800781728AB
:1043A0000AD1E2480078042806D10624DF480078C4
:1043B000401EDE49087003E028460CF057FE044614
:1043C000D54890F8F30E38B10E2C05D00020D24914
:1043D00081F81F0F0120AFE7CF4890F8180F18B9E8
:1043E000CD4890F80A0F58B1102C09DAD048007B5C
:1043F0001F2805D00E20C84981F8030F01209BE734
:10440000C7480078A8B9C448B0F9400F00280CDAB2
:10441000C149B1F9400F002801DB014600E04142EB
:1044200009B2BD4AA2F8401F03E00020BA49A1F832
:10443000400FE01E0C2871D2DFE810F09A050C0046
:104440005005FF0070004F05990550047000700082
:1044500070005304B048B0F84A0F00F47060D0B157
:10446000AD48B0F84A0F00F47060B0F5706F0CD032
:1044700011220821042003F035FDAD48807A401E4A
:10448000A9490978081AA84908704720A249A1F843
:104490004A0F012050E7A048B0F84A0F442804D042
:1044A0009D48B0F84A0F462839D19B4890F8E40E51
:1044B000401C994981F8E40E084690F8E40E9C49A6
:1044C0000979884203DD0120934981F8E40E94487C
:1044D000007878B19048B0F8400F30B18E48B0F90C
:1044E000400F9349097988420ADD01208A4981F801
:1044F000030F75E3884890F8E40E8749A1F8400F50
:10450000854890F8400F844981F8E40E042008F0B3
:1045100015FF002003F0CEFA01200DE7FEE38248EC
:104520000078002834DD81480078002830DD81489B
:10453000007800282CDD8048007818B101207849E7
:10454000087004E00120744981F8030FD1E77A482C
:104550000078401C7849087001207649087008F0FE
:1045600001FB08B90020E7E66B4890F8030F70B92B
:10457000724B1A79724B93F89F1F704B987803F027
:10458000B1FC6E488178FF226E4807F0A3FEB0E7C9
:104590006148B0F9400F66281ADD5F48B0F9400F56
:1045A0006C2815DA5C48B0F8400F6B2809D15A48DE
:1045B000B0F84A0F472804D00120574981F8030F6B
:1045C00005E05549B1F8401F88B201F0E1FF90E7DE
:1045D0005148B0F8400F40B14F4890F8400F401E8E
:1045E000514908700020534908704F48007810B1B5
:1045F0005048007888B94E4800794B49097888427C
:1046000002DD4948007818B901204749087004E0E4
:1046100045480078401C444908700E204A490870FB
:10462000042008F08BFE00204249087047490880AA
:104630003E490870404908705BE73748D0F8420FA0
:1046400020F480303449C1F8420F0846B0F84A0FD0
:10465000442804D00846B0F84A0F462836D13048DE
:104660000078A8B12C48B0F8400F30B12A48B0F912
:10467000400F2F490979884204DD0120264981F83D
:10468000030F36E7244890F8400F234981F8E40EE1
:104690002148B0F84A0F442808D11F4991F8E41E78
:1046A00001F2352188B222F023F807E01A4991F887
:1046B000E41E01F2392188B222F07CF8012016496B
:1046C00081F8E40EFF2008F039FE12E71248B0F836
:1046D0004A0F47287ED11648007BE0B91448807AFB
:1046E000134908800846C07A0871002048710E48B6
:1046F000C1F806000120087315481649086003F048
:1047000016FC312008F01AFE0E200F490870002018
:1047100008490870EDE61FE0681D0020682D0020A4
:104720009D020020754D00209B0200209902002070
:104730000E4D00209A0200209C0200202818002024
:10474000683D0020914D00209E0200209202002032
:104750003DD300086C020020FA48007B1F2815D0CA
:10476000F948007890B9F748D0F806000178F54884
:10477000807A401E0844F54908700020F4490880FA
:10478000F4490870F4490870F4490870EF4800785B
:1047900000281FD0EF48007801287BD1EF4800782F
:1047A000002877D0E848007810B901F0D7FDA0E6DE
:1047B0000021EB4880F8911EE44800781F286ED154
:1047C000E84890F8810888B30020E649A1F8660F10
:1047D000084600E0B5E190F88108E0490978B1EBBE
:1047E000400F58DC00221146DFA007F073FDE149BD
:1047F000DA4A1278891A481E0122072107F06AFD59
:10480000DD4901200DF0B4FBD649A1F8660F08463A
:10481000B0F8660F98B90021084602F04DF930B99A
:10482000D04890F8CF03D5490870F1E337E0D2497A
:1048300000200DF09DFBCB49A1F8660F1CE0C94894
:10484000B0F84A0F442817D0C648B0F87C0800B228
:10485000C449A1F8400F0021012002F02DF9C14800
:10486000B0F87C08BF49B1F9401F884204DABD485E
:1048700090F8CF03C1490870BA48B0F8660F00B28B
:10488000B849A1F8400F002003F078F9012003F0A7
:1048900075F904E01FE00020B249A1F8400FB148CB
:1048A000B0F8400F38B1AF48B0F8400F401E00B22A
:1048B000A749088004E00120AA4981F8030FA7E373
:1048C0000020A5490870A5490870A64981F8030F82
:1048D00001209D49087000259C480078482876D022
:1048E00010DC412874D006DC19282CD03C2870D06C
:1048F00040281CD11CE045285BD046286BD04728B7
:10490000F7D176E04938082811D2DFE800F0B50485
:104910008EA91010AF929A49D1F82801002131F0E8
:1049200033FA18B100218F48A0F87C180325EFE076
:104930009349D1F8A808012131F026FA08B102F014
:10494000A7FF0325E4E001238EA219461B2012F0E5
:104950001DF80446012C06D1824890F805080A2863
:1049600004DD6B2402E0022C00D16A246B2C01D000
:104970006A2C1CD1824901EB84010868012131F0C5
:1049800003FAA0B16B2C05D1802282498248FBF743
:104990001CFC04E0802281497F48FBF716FC71482B
:1049A000D0F8420F20F400706E49C1F8420F032581
:1049B000AEE07349D1F814017749EA312BF0F6F9EA
:1049C00018B92420674981F8030F0325A0E01EE0F1
:1049D00042E03DE0FFE76A49D1F818016E49DC3159
:1049E0002BF0E4F918B924205E4981F8030F032560
:1049F0008EE06349D1F81C016749E3312BF0D6F909
:104A000018B92420574981F8030F032580E05C4939
:104A1000D1F820016049F1312BF0C8F918B92420F0
:104A2000504981F8030F032572E018F0EDF80325D3
:104A30006EE01BF057FA44201CF07AF946201CF077
:104A400077F918F0C9FF062026F094FE03255FE0F1
:104A500018F018FD03255BE00AF02EF8032557E057
:104A60004FF480500EF094FF032551E04FF40050B6
:104A70000EF08EFF03254BE000BF012348A200216A
:104A8000492011F083FF0446002C3BDD0A2C39DC61
:104A900004F1500084B2A4F151000A2831D2DFE8B9
:104AA00000F005090E12161A1E22262B02200EF007
:104AB0006FFF26E04FF480400EF06AFF21E00120F6
:104AC0000EF066FF1DE008200EF062FF19E00420E2
:104AD0000EF05EFF15E010200EF05AFF11E02020CE
:104AE0000EF056FF0DE040200EF052FF09E04FF4AB
:104AF00080600EF04DFF04E04FF400600EF048FFC0
:104B000000BF00BF4FF6FE708442B6D1032500BF40
:104B100000BFB5B1032D49D10A48807A401E0B4928
:104B20000978081A094908700020074908700849DF
:104B30000880084908700849087002F0BBFF01208E
:104B400008E43EE00E4D00209A0200209B02002067
:104B500092020020990200209C0200209D02002069
:104B6000682D0020681D0020504C5520434F4445BF
:104B700000000000774D0020FA3B00209402002046
:104B800070B803084B4559424F4152442054595084
:104B900045000000B8B50308892100209DA5030841
:104BA00053454C454354204954454D000020F64997
:104BB00081F8F30E084690F8CF03F44908700120FD
:104BC00009E4F348F3490860F348007850BBF34820
:104BD000007828B1EC4890F8420F00F0080000B1CE
:104BE00016E2EF480078401CED4908700020ED49BE
:104BF0000870EB48007802281FDD01202AF0E6F952
:104C0000E94890F89F0F072806D101202AF0ECF917
:104C1000062100200EF0A8FDE34890F89F0FE3491D
:104C2000C8700AE0DF48007810B9DC48007820B985
:104C30000120D54981F8030FEAE10120DC49087021
:104C400007F090FF08B9002024E4CF4890F8030F44
:104C5000B0BBD348007800283FDDD0480078172843
:104C60003BD0CF48007801280BDDD04B1A79D9789A
:104C7000987803F037F9CD48C2788178CD4807F0AD
:104C800029FBC5480078D8B1C5480078401CC44904
:104C9000087001202AF09AF9C34890F89F0F07285E
:104CA00006D101202AF0A0F9062100200EF05CFDBB
:104CB000002002F0FFFE07F055FF10B900202CE4A1
:104CC0000BE0B148B0F8420F00F4807028B9B74843
:104CD0008178FF22B74807F0FDFA99E126F022F922
:104CE00096E1A948D0F8420FB3490840A649C1F857
:104CF000420F0846B0F84A0F4FF24501884221D1D1
:104D00004520A149A1F84A0F0020A4490870AB48EA
:104D100090F84F0100F00801A84800E061E180F838
:104D20004F11002002F0C6FE32F03CFF082002F0D6
:104D300025FF9549D1F8760F0822002107F0CAFA1D
:104D4000452010E49048B0F84A0F00F4706090B12C
:104D500043208D49A1F84A0F002002F0ABFE082045
:104D600002F00CFF8849D1F8760F0822002107F0E5
:104D7000B1FA4320E4E69248864908608848007802
:104D800068BB8B48007850BB7F48B0F84A0F442876
:104D900004D07D48B0F84A0F462809D100207F4949
:104DA0000870FF2008F0CAFA0E20864908702FE12B
:104DB00008F0D6FC0020744981F8F30E4720A1F8D2
:104DC0004A0F81480069C1F8760FD1F8760F0822A2
:104DD000002107F07FFA04207A49087018E16F4833
:104DE0000078C8B36E480078012836DD6B4800783B
:104DF000322832DA6948007837282EDD6748007893
:104E0000BF282ADA65480078C22826DD6348007882
:104E1000232822DA6148007824281EDD5F480078C4
:104E200015281AD05D480078162816D05B480078FF
:104E3000132812D000206549088059490870594943
:104E4000087055490870504890F8C7034E4981F8DA
:104E50001F0FFFF763FA3EE0FFE7002033F05AF937
:104E60005B48007BD0B14D480078B8B959480088FC
:104E70005749088057488078087100204871474892
:104E8000C1F8060000200873524800798872514822
:104E90008079C87201204149087007E04C48807A47
:104EA000401E3E490978081A3C49087000203649DE
:104EB00081F8030F38490870384909783031C8B291
:104EC00008F03CFA00203A4908704049088034490B
:104ED000087034490870012032E600BF2A48D0F833
:104EE000420F00F48030E0BB2748B0F84A0F472853
:104EF0003CD12F480078A0B337480078022835DD30
:104F000035480078401E26490870274890F89F0FC2
:104F1000002810DD244991F89F0F02F02FFE22484F
:104F200090F89F0F401EC1B21F4880F89F1F90F855
:104F30009F0F1E49C8701C4991F89F0F02F01EFE7A
:104F40000020154908701749087007F00BFE58B18A
:104F50000D4890F8030F38B914488178FF2215489E
:104F600000E003E007F0B6F90120E9E500BF00BF6B
:104F70000548D0F8420F00F4803078B3E0B205491C
:104F8000096888470120DBE5681D002094020020A5
:104F900039D300086C0200209D0200209B020020F3
:104FA000990200209C020020683D00202818002063
:104FB0009A020020914D0020C7FFFEFFE22C002046
:104FC0003DD300089E02002070B803089202002022
:104FD0000E4D0020B6DA030898020020FFE70020FB
:104FE000AEE51348B0F8530E40F6B731884208DDFD
:104FF0000F48B0F8530E40F61C41884201DA0020F9
:105000009EE50C48407808B1012099E5002097E51D
:1050100000BF09480078022808D0084890F8420FDD
:1050200000F0100010B9002002F044FD012087E5D7
:10503000682D0020BB3B002099020020681D002045
:1050400010B52448B0F8530EB0F57A7F40DA214805
:10505000B0F8530E642190FBF1F201FB120098BBF3
:105060001D48B0F8400F20B11B48B0F9400F63282D
:1050700004DD0120184981F8030F10BD1548B0F870
:10508000530E1549B1F8401F084481B21148A0F8E9
:10509000531E114890F8220FB8B10E4890F8B50E83
:1050A00000F003000C4981F8000F0C4800F12401C6
:1050B0000A6802604A684260097A01720020064963
:1050C00081F8220F0EF052FA02E000200449087025
:1050D0000020D2E7682D0020681D0020F93B002049
:1050E0009D02002010B50F4890F84A0F452804D0C3
:1050F0000C48B0F84A0F432812D102F0CDF978B12C
:10510000002009490870074890F8030F40B90820AB
:1051100033F076F8002016F021FF0120FDF726F984
:1051200010BD0000681D0020A002002010B57748C7
:1051300090F8F80300F0080000287DD0744800784B
:105140000D2803D0724800780C2875D1704800787B
:105150000C2803D130206F4981F842006D4890F847
:105160004310303990F8420001EB0010C4B2262CF5
:1051700014D008DC022C0FD0202C0ED0212C16D0FD
:10518000252C36D128E0272C27D0282C07D0292CF5
:1051900024D0372C2DD10FE000BF00BF00BF5B48EB
:1051A00090F8FF0300F0800000B923E000BF032067
:1051B000564981F8050F1DE0544890F8FF0300F0B0
:1051C000100040B1534890F84400392803D1022020
:1051D0004E4981F8050F0DE000BF00BF4B4890F825
:1051E000FF0300F0400018B10420484981F8050F82
:1051F00000E000BF00BF454890F8050F01281BDD07
:10520000454846490A6802604A684260097A017264
:10521000404890F84D10303990F84C0001EB0010E8
:105220003D4948703B4890F84B10303990F84A009F
:1052300001EB0010C1B200E066E0374881703548EC
:1052400090F849003038C1B23348C1702F4890F807
:10525000050F042812D1304824302F490A68026013
:105260004A684260097A01720321A0F6B56080F8AD
:10527000B51E0120254981F8220F11E0234890F83E
:10528000130F68B92448113823490A68C2624A6872
:105290000263097A80F8341001201C4981F8130F49
:1052A0001A4890F8050F022803D107201849087002
:1052B00011E02020174981F8430081F8420013488B
:1052C00090F8050F042803D00020104981F8220F20
:1052D00005200F49087000240DE0C4F148000D4975
:1052E000085CC4F14E010B4A50542020C4F148011F
:1052F0005054601CC4B2072CEFDB082205494E3124
:105300000548401C2CF01AF810BD0000681D002054
:105310009D020020274D0020F93B0020C8C903084A
:1053200070B510F029FB08B9002070BD0EF0ECF943
:1053300004466E4981F81F0F01F5005090F89D0F4B
:1053400000F02000002876D020460BF08FFE0C28BD
:1053500029D005DC48B104281BD006286CD11CE0FC
:105360000E286BD00F28F9D114E06148007878B18D
:10537000202060498870487008700020C87008229A
:1053800003215C4806F0A6FF002059490870CCE7CD
:1053900000BF00BF04F58070C7E7032002F0D0F91A
:1053A00004F58070C1E70020534908705348B0F8F5
:1053B0009D0F20F040015148A0F89D1F50480078F3
:1053C000401C4F4908700846007840B101280CD0B5
:1053D000022810D0032814D00020087000BF082233
:1053E0000021612005F06CFE22E00822002141200E
:1053F00005F066FE1CE0082200212A2005F060FE70
:1054000016E020203B498870487008700020C87062
:1054100008220321374806F05DFF082200214020C2
:1054200005F04EFE0020324908703249087000BF76
:1054300000BF002079E73DE02DE0FFE72C48007831
:1054400020B92A4890F8CF032E49087028480078E0
:1054500070B1202027498870487008700020C870FB
:1054600008220321234806F035FF00202049087058
:105470002248B0F89D0F20F020012048A0F89D1F81
:105480001522214900F68870FAF79FFE082032F0B5
:10549000B7FE002049E71848007858B91848007846
:1054A000032803D1204610F021F83EE720460BF0F8
:1054B000EFFF3AE7402C16DA144800EB4400058869
:1054C000302D01DB392D01DD2E2D01D128462CE7B1
:1054D0002F2D08D1054890F8420F00F0100010B9A8
:1054E00043F2300021E744F480701EE7681D00207D
:1054F000E8010020E4010020EC010020683D0020CC
:10550000E901002094020020E018002089210020F9
:1055100010B50848007808490978884201D1002070
:1055200010BD32F05DFE10F069FD044802490978B3
:10553000405CF5E765000020660000203C05002087
:1055400010B52F488168A0F67270D0F8720F8142B2
:105550000AD32B488168A0F67270D0F8720F081A2F
:10556000274949690C1A05E02648D0F8720F2449EA
:105570008968441AB4F5806F2AD22148007E022837
:1055800026DA02F0E5FC2049D1F83C030822092183
:1055900006F0A0FE0320FCF7E9FE08E01B4991F8A5
:1055A000F513491EC8B2FEF713FE00B10AE010F071
:1055B000E3F90028F2D00EF0A7F8144991F8C113CE
:1055C0008842EBD100BF0E48007E401C0C49087693
:1055D0000B4881680B48D0F8720F814209D3084804
:1055E00081680848D0F8720F081A05494969081AF5
:1055F00010BD0448D0F8720F01498968401AF7E7D6
:10560000DA3C0020682D002070B80308681D0020D7
:10561000FEB506460C460CB90020FEBD18480168D0
:10562000009141680191007A8DF808000A2194FBED
:10563000F1F201FB124000EBD071C1F347050A20E3
:1056400094FBF0F0C1B20DF101004155204604EB8E
:10565000D0714910A4EB410139B10DF10100405D59
:105660000007010E0DF1010041556946304603F077
:1056700067FC012801DA0020CFE70120CDE7000018
:10568000C8C9030870B58AB00446AD4890F8F8035D
:1056900000F00400002879D0A94890F8850830B9B6
:1056A000A74890F8420F00F006000028F3D000252C
:1056B000A34890F8420F00F00200002867D0A148EC
:1056C0000168079141680891007A8DF824009C4890
:1056D00090F884289C490DF11D00FAF776FD07A883
:1056E00000F09CFE08B90AB070BD012C13D1974898
:1056F00094490A6802604A684260097A01729048D7
:1057000090F8F76E03208E4981F8F70E2BF0F6F92A
:105710008B4880F8F76E8D480168049141680591C7
:10572000007A8DF8180000208DF810008548016877
:10573000019141680291007A8DF80C0007E007A9F9
:1057400004A82BF081FE824901A8FBF7F9F907A90B
:1057500004A803F0F5FB0028F1DA7E4890F89A0ED1
:105760008DF8040079491B317848FBF7E9F979484D
:1057700090F89A6E002180F89A1E72480168049190
:1057800041680591007A8DF8180009E0D6E03FE005
:1057900007A96E482BF058FE6D4904A8FBF7D0F915
:1057A00007A96A4803F0CCFB0028F1DA8DF81060F5
:1057B00001A904A82BF048FE002104A828F0B6FA9D
:1057C00004A800F02BFE00285AD0604824385D4918
:1057D0000A6802604A684260097A0172584890F883
:1057E000842859490F3901F6B340FAF7EEFC04A9B1
:1057F0005648243812F0C2FA564890F8760E80F0D7
:105800008001544880F8761E022C39D0052537E0F7
:105810004B4890F8420F00F0040088B34B482438FE
:1058200048490A6802604A684260097A017244483D
:1058300090F8842844490F3901F6B340FAF7C5FCC3
:105840000421444880F8761E00F6AC6100F67660CC
:1058500012F094FA3D491B31A1F13F0012F08EFA8B
:1058600000213A48243828F061FA3A4890F8760E38
:1058700080F08001374880F8761E022C00D0112578
:10588000002D5BD031492439A1F1B20016F02CFA79
:1058900000202B4981F8010F10E00BF075FB26F07A
:1058A000FFFA2948A1384078A84200D10DE02448E9
:1058B00090F8010F401C224981F8010F204890F810
:1058C000011F90F862078142E7DB00BF1C48D0F857
:1058D000420F40F004001A49C1F8420F1B483F38FC
:1058E0000168079141680891007A8DF824001748F3
:1058F0003F3800F11B010A6802604A684260097A79
:1059000001720F4890F884280F490F3901F6CE40F4
:10591000FAF75BFCFBF79AFA0C483F3807990160ED
:10592000089941609DF8241001721CB100F11B011F
:10593000FBF706F90120024981F83A0F00BFD2E6D1
:10594000681D0020C8C903083B2F0020023C00202E
:10595000D1C90308682D00202DE9F0410026FE483A
:1059600090F81F5F90F81F1F90F8D003814204D178
:105970000FF0FCFF0120BDE8F081F74890F8030F1D
:1059800008B10020F7E728460BF070FB0446102C06
:1059900001DB0020EFE7022C03D1F048007800285B
:1059A00002DD0020EE490870EB4890F8F30E40B39A
:1059B0000E2C1ED132F0F6F80020E74981F8F30EE4
:1059C0000021E848A0F8531E002002F073F80020E0
:1059D000E5490870E548807A401EE5490978081ACB
:1059E000E349087009783031C8B207F0A7FC0120FC
:1059F000C1E7062C05D00021DA48A0F8531E01208B
:105A0000B9E70B2C30D006DC012C7DD0022C7CD0E9
:105A1000062C7BD1F8E00C2C79D00D2C78D00E2CF4
:105A2000F7D1CD48B0F84A0F00F47060D0B1CA4841
:105A3000B0F84A0F00F47060B0F5706F12D0112208
:105A40000821042002F04EFAC848807A401EC84956
:105A50000978081AC64908704720BF49A1F84A0FBB
:105A6000012088E7002086E7BB48B0F84A0F4328AA
:105A700004D0B948B0F84A0F45284FD1B64890F83D
:105A8000F50E80F08000B44981F8F50E2022152132
:105A9000B848FAF7ACFBB849D1F88000FAF7DBFB5D
:105AA0000746B548D0F880103A46B248FAF78DFB61
:105AB000A94890F8F50E00F0800098B1A64890F83B
:105AC000F00E411CAB48C01D30F0C4F82D20A94990
:105AD0000872A14890F8F00E4100A648093030F055
